:020000040000FA
:06000000020A2C0201B50A
:03002B0002087751
:030033000206932F
:0300430002072C85
:030053000200E6C2
:03006B0002067911
:1000830002014A0101FF01010503010F10FEFFBC3C
:1000930012BC12BC12BC1278117211BC12A91F003F
:1000A3000000006D20000000000C0000000C0001A7
:1000B30004FFFF010102007205000000E505640072
:1000C300020200080000050207051E02051E020ABF
:1000D3000A03B80B02803E0102F1FF149651180087
:1000E300020206C0E074F21203CEA2AFE433FED2E2
:1000F300AFE5A7FFE5A1F5085F54106006121A7E6D
:1001030075A1EFE5085F54086008121A8475A1F71A
:10011300802BEFA2E0C0D0E508A2E092F0120953D1
:10012300158182F05017906198E0F8900AC2E0C3FD
:1001330098A2D265D0335002E8F075A1FEEEA2E09A
:1001430092AF7F0102042DC0E074F21203CEA2AF7E
:10015300E433FED2AF9061A4E0F8759B00E59158BB
:10016300540860087591F7121ACC802AE591585407
:100173001060087591EF121AD2801BE8A2E0C0D07C
:10018300E591A2E092F0120953158182F05007E045
:10019300C2E0F0121C169061A3E0F8E5E95854049C
:1001A300600E121BEC75E9FB906193E0A2E640F24E
:1001B300808BC0E074F21203CEA2AFE433FED2AF61
:1001C3009061A5E0F8E5BF585404600675BFFB12C3
:1001D3001C2E020140C3E498F8E499F91202198035
:1001E30026C3E49AFAE49BFBE920E7E9120219E447
:1001F30098F8E499F922C3E498F8E499F9120219FA
:10020300E498F8E499F9C3E49AFAE49BFB22EB201F
:10021300E7CFE920E7E0B90010BB0008E88AF084E3
:10022300F8AAF022E4FBC8FA22EB70227B10C83351
:10023300C8C933C9335007C39AC3DBF280069A5047
:10024300012ADBEAC833F4C8C933F4C9FA2275F0CA
:1002530008E4C833C8C933C933C99AC99B5004C910
:100263002AC93BD5F0ECFBC833F4C8E4C9FA220829
:100273000808EAC0E0EBC0E086F0E7A4FA180986B4
:10028300F0E7A42AFA180986F0E7A42AFA180986DF
:10029300F0E7A42AFA1986F0E7A4FBE5F02AFA1995
:1002A3000886F0E7A42BFBE5F03AFA190886F0E795
:1002B300A42BFBE5F03AFA18180986F0E7A4C5F079
:1002C3002BFBE43AFA1908E7C5F0C6A426F6E5F0D5
:1002D3003BFBE43AFA1886F0E7A4F6E5F00826F6C5
:1002E300E43B08F6E43A08F6D0E0FBD0E0FA22E477
:1002F300CFC0E0E4CEC0E0E4CDC0E0E4CCC0E07524
:10030300F020C3E633F608E633F608E633F608E6EC
:1003130033F6181818EC33FCED33FDEE33FEEF33F0
:10032300FFC3EC9709ED9709EE9709EF9719191990
:10033300400FFFEC97FC09ED97FD09EE97FE1919A5
:1003430006D5F0BEECF709EDF709EEF709EFF7195B
:100353001919D0E0FCD0E0FDD0E0FED0E0FF22256B
:1003630018C582C0E0E51934FFC583C0E0E518C3B2
:10037300958224F810AF0885831985821880088533
:100383008319858218D2AFCEF0A3E520F0A37808B5
:10039300E608F0A3DEFAEFF0A3E58124FAF8E60815
:1003A300F0A3E608F0A3E608F0A30808E608F0A324
:1003B300E608F0A315811581D0E0FED0E0F81581A1
:1003C30015811581E8C0E0EEC0E022C0D02518C534
:1003D30082C0E0E51934FFC583C0E0E518C3958208
:1003E30024F310AF08858319858218800885831943
:1003F300858218D2AFC8F0A3E9F0A3EAF0A3EBF02B
:10040300A37908E709F0A3D8FAECF0A3EDF0A3EE83
:10041300F0A3EFF0A3D0E0F0A3D0E0F0A3D0E0F09E
:10042300A3E520F0A3E5F0F0A322851983851882C4
:10043300E0C0E0A3E0F9A3E0FAA3E0FBA37808E0BF
:10044300F608A3DFFAE0FCA3E0FDA3E0FEA3E0FFD0
:10045300A3E0C0E0A3E0C0E0A3E0F5D0A3E0F52073
:10046300A3E0A3F5F010AF088583198582188008EF
:10047300858319858218D2AFD082D083D0E0F8D09B
:10048300E032120A8EB900030204C7E49003017834
:1004930089790E8002F0A3D8FCD9FA901089AA8238
:1004A300AB83900086786179018015E493A3AC82D5
:1004B300AD838A828B83F0A3AA82AB838C828D83E4
:1004C300D8E9D9E775821A7583E474031207EF75C7
:1004D30082B075831E74001207EF0E000975F010C9
:1004E3008E1A8F1B85821F85831E8518828519832B
:1004F300E0CEA3E0CF851F82851E83EBC9EAC8ED5A
:10050300CBECCAC3E833C8E933C9EA33CAEB33CB0C
:10051300C3EA9EF51DEB9FF51CB35004AB1CAA1D4B
:10052300EC33CCED33CDD5F0DAAE1AAF1B22D0834A
:10053300D082ECC0E0EDC0E0E493A3FCE493A3FD20
:10054300ED4C600D120609EC24FFFCED34FFFD8039
:10055300EFE493A3FCE493A3FDED4C600D1206D7E7
:10056300EC24FFFCED34FFFD80EFD0E0FDD0E0FC98
:10057300E493A3C0E0E493C0E02285198385188245
:10058300E0A3FEE0A3F5207808E0A3F608DFFAE095
:10059300A3FFE0A3C0E0E0A3C0E0E0A3C0E0E0A3CA
:1005A300C0E0E0A3C0E010AF0885821885831980FE
:1005B30008858218858319D2AFD083D0820207F5CC
:1005C300D083D082E9C0E0E493A3C386F0C5F0955D
:1005D300F0F908E493A386F0C5F095F0700BE4936B
:1005E300A3C3994005E9048002A3E475F002A4259E
:1005F30082F582E5F03583F583D0E0F9E493A3C077
:10060300E0E493C0E022C0E0C3E49396087401934E
:100613009618400FE4936670080874019366187087
:10062300007019A3A3C3E49396087401939618A3C7
:10063300A3400DD0E0D0E0D0E002056DA3A3A3A3B7
:10064300A3A3D0E0227404800474028000CCC0E031
:10065300EDC0E0E518C39CCCAD1950011D10AF06E9
:100663008C188D1980068C188D19D2AF120771D092
:10067300E0FDD0E0FC22C0E074F21203CEE589A2D3
:10068300E1500312197C758900C2C57F0102042D54
:10069300C0E074F21203CEE58BA2E0500312197C82
:1006A300758B00C2E880E474028000CCC0E0EDC02A
:1006B300E0E518C39CCCAD1950011D10AF068C1892
:1006C3008D1980068C188D19D2AF12074FD0E0FD1B
:1006D300D0E0FC22C0E0C0F088F0E4936670080824
:1006E30074019366187000A8F0A3A3700BD0F0D028
:1006F300E0D0E0D0E002056DA3A3D0F0D0E022D09B
:1007030083D082CCC0E0E493A360061207B11470D7
:10071300FAE493A360061208C11470FAD0E0FCE473
:1007230093A3C0E0E493C0E022C0E074F21203CECE
:10073300A2AFE433FED2AFC2C0E5D1A2E4500312AC
:1007430019F4EEA2E092AF7F0102042DCAC0E0E4E7
:1007530093A3C582CCC582C583CDC583F0A3C582CF
:10076300CCC582C583CDC583DAE5D0E0CA22CAC031
:10077300E0E0A3C582CCC582C583CDC583F0A3C504
:1007830082CCC582C583CDC583DAE6D0E0CA2270A8
:1007930009080808226016181818C6C333C608C605
:1007A30033C608C633C608C633C6D5E0EA22C0E05E
:1007B300E493A3D39C5010E493A3C39C400AD0E0DA
:1007C300D0E0D0E002071FA3A3A3D0E022C008C358
:1007D300E096F50808A3E096420808A3E0964208CD
:1007E30008A3E09645087001D3D00822C09FF59F67
:1007F300E473D09F22D083D082C09FE493C0E0747F
:100803000193C0E0740293F59F222518F58210AF7F
:1008130008F518400215198008F51840021519D279
:10082300AF851983227404800A74038006740280DE
:10083300027401C0E0F40412080DD0E0120A692228
:10084300C0D0251810AF08F518500205198008F517
:100853001850020519D2AFD0D022BB0102E722C043
:1008630082C08389828A83BB0003E08002E493D041
:1008730083D08222C0E0C0D0E8C0E0E5A8D2AFC2F6
:10088300C7A2E792AFD0E0F8D0D0D0E0326016082C
:100893000808C6C313C618C613C618C613C618C697
:1008A30013C6D5E0EA22C3E0C696F608A3E0C696CF
:1008B300F608A3E0C696F608A3E0C696F622C0E0C3
:1008C300E493A36C7009D0E0D0E0D0E002071FA34B
:1008D300A3D0E022251810AF08F51840021519809F
:1008E30008F51840021519D2AF22E76670100809FF
:1008F300E766700A0809E76670040809E76622E0FC
:1009030066701008A3E066700A08A3E06670040826
:10091300A3E06622C3E09608A3E09608A3E0960846
:10092300A3E096A2D265D03322C3E096F008A3E0F9
:1009330096F008A3E096F008A3E096F022E026F0F4
:1009430008A3E036F008A3E036F008A3E036F0226F
:10095300C0E0E8C0E0E58124FCF8E6A2E7D0E0F8D7
:10096300D0E022E647F60809E647F60809E647F627
:100973000809E647F622E026F608A3E036F608A3C0
:10098300E036F608A3E036F622E627F60809E6374E
:10099300F60809E637F60809E637F622E657F608B9
:1009A30009E657F60809E657F60809E657F622E07E
:1009B30056F608A3E056F608A3E056F608A3E05659
:1009C300F622E056F008A3E056F008A3E056F0083C
:1009D300A3E056F022700422600D18C6C333C60884
:1009E300C633C6D5E0F41822E4C396F608E496F6B7
:1009F30008E496F608E496F622C6F4C608C6F4C6DA
:100A030008C6F4C608C6F4C622C3E7960809E796E3
:100A13000809E7960809E79622C3E09608A3E0963B
:100A230008A3E09608A3E0962275D000758140756F
:100A3300180175190300020485E0F608A3E0F6081F
:100A4300A3E0F608A3E0F622600C08C6C313C61899
:100A5300C613C6D5E0F422E6F008A3E6F008A3E641
:100A6300F008A3E6F022CAC0E0E6F0A308DAFAD061
:100A7300E0FA22E0FAA3E0FBA3E0FCA3E0FD22EA14
:100A8300F0A3EBF0A3ECF0A3EDF022E5C754F84498
:100A930001F5C77901222518F582E43519F583227A
:100AA300C2AF75D69F020000221207F8D7DF0212E9
:100AB30007F8B9E0021207F80EE3021207F85BE445
:100AC300021207F8FEE4021207F845E6021207F8DD
:100AD30063E6021207F8BB22001207F8CD220012C8
:100AE30007F81F23001207F88023001207F80A24CF
:100AF300001207F8AE24001207F80225001207F8C7
:100B03001B25001207F84125001207F87C25001267
:100B130007F8C025001207F8E725001207F8382662
:100B2300001207F8E826001207F8A027001207F8BA
:100B33006828001207F82829001207F86C29001208
:100B430007F89129001207F8D429001207F8212A7F
:100B5300001207F8792B001207F8FF2B001207F891
:100B63001D2C001207F8472C001207F8612C001205
:100B730007F8702C001207F87B2C001207F83B2DA6
:100B8300001207F8942D001207F8562E001207F8EA
:100B93005E2E001207F8222F001207F88E2F001284
:100BA30007F8B930001207F8DE30001207F85431A5
:100BB300001207F8E631001207F8A632001207F810
:100BC300C532001207F8D433001207F8E6330012D7
:100BD30007F85634001207F88034001207F80E3570
:100BE300001207F84735001207F89335001207F88B
:100BF300AF36001207F8F838001207F8033900126D
:100C030007F80E39001207F81939001207F82339CB
:100C1300001207F82E39001207F84839001207F8B6
:100C23005239001207F85C39001207F867390012CD
:100C330007F88F39001207F8EA39001207F8F43978
:100C4300001207F8183A001207F83C3A001207F8A6
:100C53009A3A001207F8DE3A001207F8FA3A00123D
:100C630007F8713B001207F8A93B001207F8F53BA0
:100C7300001207F8523C001207F80C3D001207F867
:100C8300F03E001207F8493F001207F879400012BE
:100C930007F89F40001207F82842001207F8A445FE
:100CA300001207F87647001207F83F49001207F8C9
:100CB300EC49001207F8574B001207F8F64B0012E5
:100CC30007F83B4C001207F8A54C001207F8B44C88
:100CD300001207F83B4F001207F8ED50001207F817
:100CE3005A51001207F83952001207F852530012F2
:100CF30007F8CF54001207F8EE54001207F84355D3
:100D0300001207F84856001207F87056001207F849
:100D1300C856001207F8A757001207F8EB5700123E
:100D230007F83658001207F8A158001207F8E259DD
:100D3300001207F8465A001207F8945B001207F8EE
:100D4300F45D001207F8255E001207F8DD5F00125C
:100D530007F83260001207F83661001207F8D36112
:100D6300001207F82C62001207F8DF62001207F87E
:100D73008163001207F82164001207F8C6640012A9
:100D830007F8E482011207F82383011207F86A8542
:100D9300011207F8B485011207F8CF86011207F88C
:100DA3003787011207F86C87011207F8E0880112F0
:100DB30007F8638B011207F88C8C011207F8228D58
:100DC300011207F82A96011207F8BF96011207F8D5
:100DD300A699011207F8999A011207F8079B0112C5
:100DE30007F84D9C011207F82F9D011207F8149F75
:100DF300011207F825A1011207F88FA1011207F8C4
:100E030061A2011207F88FA2011207F84CA3011285
:100E130007F823A4011207F8EAA4011207F88EA524
:100E2300011207F8B7A5011207F8D9A5011207F8AF
:100E33002FA8011207F807A9011207F84BA90112FD
:100E430007F8B3A9011207F86BAA011207F89DAAC4
:100E5300011207F8E1AA011207F817AB011207F80C
:100E630063AB011207F8B8AB011207F8BDAB01126F
:100E730007F810AC011207F835AC011207F844ADBE
:100E8300011207F8A8AD011207F818AE011207F80E
:100E9300A4AE011207F871B1011207F855B201129D
:100EA30007F8D8B3011207F80EB6011207F8BCB65B
:100EB300011207F86CB7011207F8ADB9011207F870
:100EC30050BA011207F897BA011207F843BC01128E
:100ED30007F857BC011207F861BC011207F889BC77
:100EE300011207F895BC011207F8B4BC011207F808
:100EF300D4BE011207F823C0011207F867C001121C
:100F030007F80FC1011207F8F2C1011207F89DC2D9
:100F1300011207F8E9C3011207F8E7C4011207F841
:100F23008DC5011207F81DC6011207F834C6011258
:100F330007F86BC6011207F875C6011207F880C6D9
:100F4300011207F89EC6011207F8E2C6011207F85C
:100F53003FC7011207F864C7011207F87EC70112E1
:100F630007F80AC8011207F827C9011207F894C93C
:100F7300011207F87BCA011207F8A2CA011207F887
:100F830016CB011207F891CB011207F895CC011289
:100F930007F88BCD011207F83ACE011207F84DCFAF
:100FA300011207F8E9CF011207F876D0011207F80A
:100FB30054D1011207F88CD1011207F8E4D10112C0
:100FC30007F8ADD2011207F8CED2011207F855D3B4
:100FD300011207F879D3011207F89BD3011207F81E
:100FE300E4D3011207F8FAD5011207F8E1D601128A
:100FF30007F892D7011207F8C8D9011207F818DACF
:10100300011207F858DA011207F89ADA011207F801
:10101300F6DA011207F824DB011207F848DB0112A4
:1010230007F89BDB011207F8C9DB011207F802DCA2
:10103300011207F857DC011207F8BDDC011207F8AB
:1010430011DE011207F834E0011207F8A1E00112E2
:1010530007F8CAE0011207F855E1011207F8BCE1ED
:10106300011207F807E2011207F82BE2011207F851
:101073004FE2011207F8AAE2011207F8C5E20112D2
:1010830007F87EE3011207F882F5031207F8C1F5AA
:10109300031207F87880021207F8BE80021207F8DD
:1010A3009E81021207F8A082021207F8A38302129C
:1010B30007F82F85021207F88D85021207F84A8672
:1010C300021207F86887021207F8D987021207F895
:1010D3001588021207F86388021207F86D88021256
:1010E30007F8B188021207F80D89021207F8A889D8
:1010F300021207F8258A021207F8F48A021207F887
:101103008D8B021207F8AD8B021207F8E38B0212E4
:1011130007F8148C021207F8D58C021207F8E58C35
:10112300021207F8398D021207F8548D021207F8DC
:10113300668D021207F86F8D021207F8C98D02122D
:1011430007F8258E021207F8718E021207F88C8EAB
:10115300021207F8BD8E021207F8DA8E021207F8A0
:10116300E68E021207F85A90021207F873900212E1
:1011730007F8DA90021207F8ED90021207F8FB90D5
:10118300021207F8AF91021207F89392021207F8BE
:101193009993021207F82394021207F82D9402126E
:1011A30007F89A94021207F8B194021207F8E3942D
:1011B300021207F81C95021207F84695021207F867
:1011C300A795021207F8C795021207F8E5950212D0
:1011D30007F82B96021207F85197021207F89E9709
:1011E300021207F8CD97021207F84398021207F884
:1011F3006B98021207F8A498021207F8B298021229
:1012030007F80A99021207F85999021207F89899F0
:10121300021207F8C899021207F8F499021207F8A4
:10122300FF99021207F81D9A021207F8DF9A0212B9
:1012330007F8E99A021207F82A9B021207F87F9B24
:10124300021207F8939B021207F8A19C021207F8F7
:10125300B49C021207F8C99C021207F86B9D021294
:1012630007F8EE9D021207F8AC9E021207F8B79E2C
:10127300021207F8E39F021207F8FF9F021207F812
:1012830051A0021207F890A0021207F8A5A00212BB
:1012930007F807A1021207F896A1021207F8E1A1C5
:1012A300021207F832A4021207F8B0A4021207F8D8
:1012B30025A5021207F847A7021207F85FA7021233
:1012C30007F862A7021207F86EA7021207F882A7AF
:1012D300021207F88AA7021207F8BDA7021207F83D
:1012E3006DA8021207F8E3A8021207F856A9021222
:1012F30007F80AAA021207F8BFAA021207F8DEAA21
:10130300021207F884AB021207F8AFAB021207F818
:10131300B2AB021207F81CAC021207F844AD02127A
:1013230007F81CAE021207F8A7AE021207F8C0AF07
:10133300021207F87DB0021207F8B6B0021207F8DE
:10134300E7B0021207F8A5B1021207F8D5B10212ED
:1013530007F8B0B2021207F849B3021207F8D4B380
:10136300021207F885B4021207F808B5021207F84B
:101373003AB5021207F87BB5021207F805F5021217
:1013830007F86AF5021207F8A7F5021207F8F6F54F
:10139300021207F80CF8021207F8EFF9021207F825
:1013A30059FD021207F894FD021207F8B6FD021266
:1013B30007F819FE021207F84DFE021207F870FE35
:1013C300021207F89DFE021207F8F9FE021207F84F
:1013D300278D031207F8A58D031207F8DB8D03127F
:1013E30007F8478E031207F8BA8F031207F8D68F50
:1013F300031207F81B90031207F8A990031207F8CA
:1014030086D6021207F82F92031207F841930312AC
:1014130007F89E93031207F80A94031207F86B94D4
:10142300031207F8AC94031207F85995031207F84F
:101433006B96031207F89696031207F8E1960312C8
:1014430007F82897031207F8BA97031207F8759855
:10145300031207F8C3E9031207F8BBDF021207F808
:1014630086FE011207F801FF011207F80CFF0112B3
:1014730007F878AB031207F8C4AB031207F832ACD2
:10148300031207F853AC031207F803AD031207F86E
:101493000CAD031207F85FAD031207F888AD031212
:1014A30007F8EFAD031207F880AE031207F8C2AED8
:1014B300031207F80CAF031207F86BAF031207F818
:1014C30097AF031207F828B0031207F867B00312A7
:1014D30007F8A6B0031207F8DBB0031207F8EDB064
:1014E300031207F8FFB0031207F81EB1031207F83F
:1014F30027B1031207F8DDB1031207F81DB2031277
:1015030007F86AF2031207F8E8E1031207F81EE28C
:10151300031207F867E2031207F8B7E3031207F8A9
:10152300B8E3011207F8F7E4011207F833E50112F3
:1015330007F8F2E6011207F81BE7011207F8AEE914
:10154300011207F8F2E9011207F87BEB011207F821
:1015530013EC011207F87BEC011207F81CED0112E2
:1015630007F85EED011207F89EED011207F829EF67
:10157300011207F899F0011207F8BEF2011207F8F9
:10158300ECF2011207F813F3011207F81CF301122E
:1015930007F8A3F3011207F8C1F6011207F8C5F61D
:1015A300031207F8DBF6031207F837F5031207F8FF
:1015B300CED3031207F8E1D3031207F87ED4031244
:1015C30007F8B9D4031207F8D4D4031207F8F9D4EF
:1015D300031207F83ED5031207F86FD5031207F875
:1015E300A0D5031207F826D7031207F83DF3031219
:1015F30007F873F3031207F88FF3031207F8D1F315
:10160300031207F8E1F3031207F8EBF3031207F8E9
:10161300EC98031207F81199031207F82E99031295
:1016230007F84B99031207F87399031207F89A996D
:10163300031207F8CA99031207F8839A031207F8EB
:10164300019B031207F8BA9B031207F8869C031247
:1016530007F8429D031207F8C99D031207F8B59EC8
:10166300031207F8FB9E031207F8B8A1031207F849
:1016730025A2031207F80080031207F8558003120E
:1016830007F83E81031207F8D781031207F8218276
:10169300031207F87E82031207F89282031207F8F7
:1016A300C482031207F8C283031207F806840312E5
:1016B30007F82184031207F87084031207F886845D
:1016C300031207F89384031207F8C784031207F879
:1016D300E084031207F8AA85031207F804860312AD
:1016E30007F85286031207F87486031207F8EB888B
:1016F300031207F82089031207F8B089031207F8C9
:10170300258A031207F82A8A031207F8668A031246
:1017130007F8BC8A031207F8808B031207F8A58B1E
:10172300031207F8AF8B031207F8B28B031207F803
:101733003B8C031207F8568C031207F8698C0312CB
:1017430007F8A48C031207F8A78C031207F8B28CCE
:10175300031207F8EE8C031207F8EAF4031207F8F2
:1017630002F5031207F842F7011207F891F7011285
:1017730007F833F9011207F8EFFA011207F837FBFC
:10178300011207F81FFC011207F850FD011207F8B8
:1017930072FD011207F8CEFD011207F852FE011285
:1017A30007F81265001207F83365001207F8B065F1
:1017B300001207F83566001207F8B166001207F841
:1017C3001A67001207F86667001207F8E567001248
:1017D30007F87768001207F80369001207F84569EC
:1017E300001207F88E6D001207F80E6F001207F84B
:1017F300E46F001207F81370001207F8FE7100126D
:1018030007F87E74001207F83775001207F854764C
:10181300001207F8AB79001207F8BB79001207F83A
:101823001C7B001207F8A87B001207F8D17C00127A
:1018330007F8C27D001207F8447E001207F88AE613
:10184300021207F844E7021207F8B6E7021207F894
:1018530052E8021207F8C2E8021207F87BEB021201
:1018630007F852EC021207F8BFEC021207F83CEE3D
:10187300021207F806EF021207F876EF021207F8D2
:101883003FF1021207F852F2021207F8EBF20212CA
:1018930007F8B1F3021207F82AC9031207F87EC941
:1018A300031207F8D6C9031207F821CA031207F86F
:1018B30083CA031207F8EFCA031207F8A2CB031275
:1018C30007F8E3CB031207F8F9CB031207F855CC5B
:1018D300031207F893CC031207F825E6031207F85F
:1018E30056E6031207F810E7031207F876E7031228
:1018F30007F899E4031207F84EEB031207F87BEBA2
:10190300031207F899EB031207F800EC031207F828
:101913003BEC031207F87FEC031207F878F6031287
:1019230007F889F6031207F8FFE7031207F80DE833
:10193300031207F8E5FF021207F803F4031207F88E
:1019430013F4031207F82EF4031207F88FF40312AB
:1019530007F868F1031207F8EDF1031207F851F2E3
:10196300031207F84AEF031207F86CEF031207F8A4
:10197300D6EF031207F8E1EF031207F825F003127D
:1019830007F833D7031207F841D7031207F86AD7CA
:10199300031207F885D7031207F8A2D7031207F833
:1019A300BBD7031207F862D8031207F8E1D8031272
:1019B30007F8C4CC031207F8D2CC031207F84CCDB6
:1019C300031207F830CE031207F8E9CF031207F822
:1019D300A3F6031207F846B2031207F8B2B20312D2
:1019E30007F871B3031207F87BB4031207F8D4B5F1
:1019F300031207F82FB6031207F884B6031207F889
:101A03008DB6031207F89FB6031207F809B703123E
:101A130007F81DB7031207F827B7031207F8F8BB37
:101A2300031207F84DBC031207F849BE031207F867
:101A33007BBE031207F89DBE031207F8B6BE03125E
:101A430007F8CFBE031207F8D9BF031207F874C013
:101A5300031207F8B6EC031207F8DAEC031207F8DF
:101A6300F3EC031207F826ED031207F857ED031200
:101A730007F885ED031207F8E7ED031207F8F6ED13
:101A8300031207F800EE031207F80DEE031207F82E
:101A930095DA031207F8BBDA031207F8F8DA031230
:101AA30007F807DB031207F826DB031207F88EDBC0
:101AB300031207F897DB031207F8F6DB031207F8A4
:101AC3001ADC031207F8D9DC031207F8E6DC031269
:101AD30007F8F7DC031207F80FF6031207F82CF6E2
:101AE300031207F8EBC0031207F849C2031207F801
:101AF30056C2031207F869C2031207F888C2031219
:101B030007F89EC2031207F8B2C2031207F827C3ED
:101B1300031207F88CC3031207F83CC4031207F837
:101B230011C5031207F821C5031207F830C50312C4
:101B330007F84CFF021207F870FF021207F898FF2C
:101B4300021207F8C0FF021207F825DD031207F897
:101B53004CDD031207F86DDD031207F8D2DD031223
:101B630007F88BDF031207F8A4DF031207F8B0DFCF
:101B7300031207F8C4DF031207F8E2DF031207F8C2
:101B8300ECDF031207F8F6DF031207F809E003128C
:101B930007F85CE0031207F895E0031207F8C4E0C6
:101BA300031207F812E1031207F861E1031207F8C1
:101BB3007CE1031207F886E1031207F897E10312A9
:101BC30007F8DDE1031207F899F4031207F83CA2C2
:101BD300031207F866A2031207F882A2031207F89A
:101BE30095A2031207F8ABA2031207F808A3031286
:101BF30007F83BA3031207F877A7031207F89DA87A
:101C0300031207F8D0A8031207F81CA9031207F858
:101C130048AA031207F870AA031207F885AA031249
:101C230007F895AA031207F8D9AA031207F83AABE3
:101C3300031207F84AAB031207F817EE031207F86B
:101C430032EE031207F85BEE031207F875EE031288
:101C530007F89AEE031207F8B9EE031207F8D1EE6C
:101C6300031207F8FFEE031207F819EF031207F840
:101C7300CBF5031207F84ED0031207F855D0031221
:101C830007F861D1031207F891D1031207F8B7D10E
:101C9300031207F8DAD1031207F8FCD1031207F88D
:101CA30036D2031207F89CD2031207F8D5D20312D7
:101CB30007F821D3031207F84ED3031207F86ED3A4
:101CC300031207F85CF0031207F874F0031207F825
:101CD30062F1031207F865F1031207F8DC7E0012C4
:101CE30007F84E7F001207F88C7F001207F8CD7FAC
:101CF300001207F869C5031207F888C5031207F82D
:101D0300D7C5031207F8F3C5031207F824C6031255
:101D130007F831C6031207F83EC6031207F82AC7AD
:101D2300031207F868C7031207F878C8031207F805
:101D330083C8031207F895C8031207F89EC8031255
:101D430007F8A8C8031207F83BB7031207F880BBCC
:101D5300031207F88EBB031207F84BF6031207F8BA
:101D6300DAD5021207F820D4021207F8D0D10212F2
:101D730007F857D1021207F8FED0021207F88ED0E7
:101D8300021207F865D0021207F845CE021207F8CF
:101D930011CE021207F8DECD021207F8C2CD0212ED
:101DA30007F8DBCC021207F893CC021207F8DECA5D
:101DB300021207F85ECA021207F85BCA021207F89A
:101DC30058C9021207F826C9021207F863C802129B
:101DD30007F88EC6021207F81FC6021207F8F1C5EC
:101DE300021207F83FDF021207F8F6DE021207F8C5
:101DF300AEDE021207F8FCDD021207F86EDD0212F6
:101E030007F8EEC5021207F8DBC5021207F886C50C
:101E1300021207F861DD021207F875C5021207F80E
:101E230067C4021207F831C4021207F8DFC30212B3
:101E330007F85BDA021207F818EA031207F880C3FF
:101E4300021207F84FC3021207F817C0021207F86D
:101E5300D7BF021207F8CBBF021207F82BBF02123B
:101E630007F86BBE021207F8EDBB021207F87EB942
:101E7300021207F83CB9021207F810B8021207F869
:101E8300C5B7021207F804B7021207F8D7B6021251
:101E930007F81AB6021207F8B0B5021207F8EAB546
:101EA300021207F8BDD7021207F8029103000000DF
:101EB30080FBE473000136360101000102010001D9
:101EC30003010001040106060502000007010034B6
:101ED3000801000F090401010D0100FF0E080000B5
:101EE30017020000190100FF1A0100011B0100FE87
:101EF3001C0100081D0200001F0100012001000158
:101F0300210200002301000F24020000260100012A
:101F130027010008280200FF2A0100072B010240C5
:101F23002C0100002D0100012E0100012F0100FFF3
:101F330030010B1C310800003A0100083B01000F7F
:101F43002F010000030271023001600211027002CE
:101F53000102020202028002100261023A00410001
:101F63006302730272026202430200021302380028
:101F73000002000204021202000200020002000238
:101F830004020402370037003C0244020002390015
:101F9300000200026502000235028102000205020E
:101FA300820283020002030071003001600011000D
:101FB3007000310220035004800010006100000013
:101FC30014006300730072006200430000001300FA
:101FD30006000000000004001200000000000000E2
:101FE300000004000400370037003C0244000000F6
:101FF30000000000000065000000350081000000C3
:10200300050000008300000003047104020460045F
:1020130011047004020402040104020410046104A4
:10202300000414046304730472046204430400048C
:10203300130406040004000404041204000400044E
:102043000004000451046400000400040004440478
:102053000004000400040004650400043504810442
:1020630064000504000483040004010371030103F5
:10207300010301030103010322030203010310030C
:1020830000030003000300030003000300034203F3
:1020930000032403060300030003040312032503C0
:1020A30023032503230304030403000300030003A2
:1020B30044030003000323030003650321003503E6
:1020C3008103000305030003000300030101710101
:1020D300010101011101010131010101010180012E
:1020E300100161013B00140063017301720162017D
:1020F30043010001130106013D01350004011201F2
:102103000001000100010001040104013301330156
:102113003C01440132013600000100016501000168
:1021230035008101000105018201830100013600B0
:102133000100060000000F00000000000000000086
:102143000000000003FFFF00000403FFFF0000FF87
:10215300FF0FF4010005C4040320000100030B007A
:102163000000000000000003010F000056181300D8
:10217300F617010056180200C0170300C617040023
:10218300CC170500D2170600DE17FFFF000001CAB7
:102193000D06FA0D08F40D0B060E10460D02D00DB8
:1021A30005E80D07D60D0CAC0D0DBE0DFF000003A9
:1021B300EAF5E5D5D5C5B5A59595858575756565A7
:1021C3005555454535352525151505D2110212D826
:1021D30011DE11FC11F011EA1108120E1214122073
:1021E30012E411CC11C61100160F00000B150B02DF
:1021F3000002220F32000006BC12CE12D4129C1130
:10220300DA129611A211D610D0100C111211061168
:10221300BE10161334133A131C1328132213303031
:1022230016181920231A1C1E300C0E020B040B0A5D
:102233000708000F00383C3E363B3B352B432C3020
:102243003017181921301B1D1F30000119161816DD
:10225300161523030000034948424D1817250502AC
:102263000A13E012E612F212EC12F6111A122E13EE
:1022730026122C12020402010101010902E210E8F4
:1022830010DC101811000000000000EE1000110017
:10229300BE040A150004007F00E8030C00280000B8
:1022A3000000000308100C0A03080900040001FFE2
:1022B3001E1E0C05040F1008C082C0838A828B8304
:1022C300E0D2E7F0121724023432C082C0837900CF
:1022D30012278712549EC082C08390033412422473
:1022E300D083D082C3E09CA3E09D500C125B72FAB2
:1022F300A3E01222FE600109023432FBEA75F00BFF
:10230300A4FAA8F075F00BEBA428FB900336E02A9F
:10231300F8A3E03B8882F583E0540F2274F712039D
:1023230062890812278712282DACF075F00BE9A4F7
:102333002CF9900336E028FEA3E039FF7401650809
:1023430060067402650870208A828B831228191232
:10235300350074026508701B1226D81228607013AA
:102363008E828F83E4F0800BEA2403FCEB1227FBBD
:10237300122807EEFAEFFB120AD602346A74F4123B
:10238300036212649979008E828F83E06076890AF2
:10239300890B8065E50A75F00BA4FAA8F075F00BBC
:1023A300E50B12230B7046E50A75F00BA4F8AAF0AF
:1023B30075F00BE50B12283F8E828F83E085088230
:1023C300850983122921850882850983A312350093
:1023D300EE2403FCEF122804123439124F18AA0812
:1023E300AB09120AD6790190033412492DE50A2468
:1023F30001F50AE50B3400F50B1226E0E50A9AE530
:102403000B9B40900236AA74F5120362EAFEEBFFBF
:10241300740B120A9912343E750A01EC4D602BECD1
:102423001264B5ED12549E1234F87901120AE2E5F2
:10243300084509606F850882850983A31264A3791F
:1024430002AA08AB09120AE2805AE5084509602B83
:102453001254A2123B6C12343A12284A700CEEFA50
:10246300EFFB120AE8E9F50A80CBEE2403FA122700
:102473008270317903EEFAEFFB80CA8E828F83A3D9
:10248300E064FE7003A3E0F4700BEE24030A0A0A6F
:10249300122782700CEEFAEFFB120AE8E9F50A80C4
:1024A30003750A00A90A7F0302057D74F71203620C
:1024B30090033412347AEA4B602FEA75F00BA4FAD6
:1024C300A8F075F00BEBA428FBEAFEEBFF12151442
:1024D30090033612347A9003361247726012EEFC80
:1024E300EFFD790012147E8007900336E4F0A3F029
:1024F30002346A900334123EDCC3EE98EF9922C093
:1025030082C083EC4D6005121CEE80097C087D00BF
:10251300790012147E02343274F61203627900EAEF
:102523004B6018780088081257E5EB125B6E600465
:102533007901780808E8C3940840EA02350974F77A
:1025430012036274F31208D7ECFEEDFF851882853F
:102553001983E4F004120A99EAF0A3EB124C9E7477
:1025630003120A99AC82AD83EEFAEFFB120AFAEE7C
:10257300FAEFFB120B0002346574F712036274F373
:102583001208D7ECFEEDFF851882851983E4F0EA83
:10259300FCEBFD7403120A9912291A7401120A99A9
:1025A3001234F48E828F8312350074FE68700374C4
:1025B300FF69600479018002790002346574F712BF
:1025C3000362EAFEEBFF12261E70141226298E8286
:1025D3008F83E0F4F88A828B83E058F0120AD6A93D
:1025E3000802346A74F7120362EAFEEBFF7508000F
:1025F3008E828F83E0602212261E701D1226298A86
:10260300828B83E08F838E82F8E058700CE0F88A27
:10261300828B83E048F0120AD680C4120ADCE9F503
:102623000874016508221264AE122831122773FA66
:10263300A3E039FB2274F41203628A088B097C003D
:102643007D001226D81228071227981264A0790059
:10265300850882850983A3E064FE7003A3E0F46028
:10266300717E007F008062EEFAEF1222FE6057EE69
:10267300FAEFFBEA75F00BA4FAA8F075F00BEBA4E4
:1026830028FB900336E02AF50AA3E03BF50B850807
:1026930082850983A3124BEC850A82850B83A3E011
:1026A3006A7003A3E06B701EE50A2403FAE50B12BC
:1026B3002783700AE50A2403FCE50B12280412277A
:1026C3008C79011254B41230771226E0EE9AEF9B04
:1026D30040950236AAEA24030A0A0AEB229003343D
:1026E30012508BC32274F31203628A088B098A8205
:1026F3008B83A31264A31227871264A0750C0012A4
:1027030026D812278370547E007F008049122765E4
:10271300FAA3E0398A82F583E0540F603612276505
:10272300F50AA3E039F50BE50A2403FCE50B1228AF
:102733000E3400FB121CE8E964017017850A8285D8
:102743000B83A312514CA312350012278C750C0175
:102753001254B41230771224F640B2A90C7F05024A
:10276300057DEEF8EFF9E875F00BA4F81227732254
:10277300AAF075F00BE9A42AF9900336E02822EFBA
:1027830012285A221264B4EB221227981254AFEE85
:10279300F0A3EFF022E5081264B5E5092274F512FF
:1027A3000362EAFEEBFF8E828F83A31264A37C0095
:1027B3007D00EE24030A0A0AEF122807EEFAEFFB64
:1027C300120ADCE9F50A7401650A70291264AE1273
:1027D300282DAAF075F00BE912283F850882F583AE
:1027E30012281912284A700DE5082403FCE5091282
:1027F30027FB1228070224A73400FDEE2403FAEF77
:102803002212280E3400FB120AFA223400FDE508D6
:102813002403FAE50922A312281E2212282222E009
:10282300F8A3E0F98E828F83A32212283122340089
:10283300F583123EE0E875F00BA4F822122779F530
:1028430008A3E039F50922E8F0A3E9F0E508240339
:10285300FAE50912285A221228606401223400FB87
:10286300120B00E92274F312036274E61208D71202
:102873006499750C01750800750900750A00750BDC
:1028830000851882851983E4F0EE2403FCEF3400FD
:10289300FD7403120A9912291AE964017023740B57
:1028A300120A991234F87401120A99124BF0700348
:1028B300A3E0696051851882851983858208858321
:1028C30009740D120A99E4122921740E120A99123D
:1028D3003500740D120A99AA82AB83120B1EE964A8
:1028E30001700B740D120A9985820A85830B780A8D
:1028F300120830AC08AD09EEFAEFFB120AEE7402CF
:10290300120843E9F50CEEFAEFFB120B18A90C744D
:102913001A120843022760122BED120B24221234E1
:1029230075123EDC22C082C08378007900800312D6
:102933002A181226E0E89AE99B5029E8FAE9FBEA0B
:1029430075F00BA4FAACF075F00BEBA42CFB900321
:1029530036E02AFCA3E03B8C82F583E0540F70CF72
:10296300790080027901023432C082C083902296BA
:10297300123F32EC75F012A4FCA8F075F012EDA42E
:1029830028FD79FF7A317B0B12147E02343274F7FF
:10299300120362E9FEEAFF7A007B00780079008087
:1029A30028E8FCE9FDEC75F012A4FC85F00875F04D
:1029B30012EDA42508122E2DC39E400AE0FCEFC39E
:1029C3009C4003122F4C122A18122E2140D302349A
:1029D3006AC082C083780079008003122A18122A01
:1029E3000C501F122E31F470F2E875F012A4F8AAFD
:1029F300F075F012E9A42AF9743128FA740B39FB43
:102A030080047A007B00023432902296122EE2C3B5
:102A1300E89AE99B22E8240108E93400F92274F0DA
:102A230012036274F31208D78A0A8B0B8C0C8D0D78
:102A33008908EC450D6016AA0CAB0D120B728A0EB9
:102A43008B0FAE0EAF0FEE4F6003022ADF120B485F
:102A53008A0E8B0FA80EA90FE8FEE9FFE849607CF8
:102A63009022A4122B41602274036508600674044B
:102A7300650870167A047903120B429022A4122B74
:102A83005840077A007B00022B3E9022A2122B4172
:102A9300601B74016508600674026508700F7A0292
:102AA3007901120B429022A2122B5850D68518821C
:102AB3008519837401F0120A99124F18AC0CAD0DED
:102AC3007403120A99122BE6740B120A99123446F4
:102AD3001238E0E4124F001210168004EE4F604AE1
:102AE300780074FF2508C39404500278048E828F03
:102AF30083124F188E828F83A3A3A3A3E508F0E864
:102B03008E828F83A3A3A3A3A3124F2012021112B9
:102B13002EF98E828F83A3A3A3A3A3A3A3F0122EC4
:102B2300F0120A76125498120A82122B464005902C
:102B3300108DE4F0120EF0EEFAEFFB023EE61250B7
:102B43003A49227A047900120B42902296125B547E
:102B5300EA98EB9922122B71758322758296E4937E
:102B6300C398F8A3E49399F9C3EA98EB9922E49301
:102B7300F8740193F92274F212036274F31208D702
:102B83008A088B09ECFEEDFF750A00EEFAEFFB12E3
:102B93000B728A0C8B0DA80CA90DE849603E888244
:102BA3008983E065087004A3E06509602F88828942
:102BB30083A3A3A3A3E0C39405502112534685180E
:102BC300828519837401F0120A9912534AEEFCEFBD
:102BD300FD7403120A99122BE6750A01A90A740DF2
:102BE3000249E4122BED120B3022AA82AB83120AA4
:102BF300FA851882851983AA82AB832274F612039D
:102C030062122C3B600FA3A3A3A3E014C39404504C
:102C13000479018002790002350974F61203621205
:102C23002C3B600FA3A3A3A3E014C3940250047925
:102C33000180027900023509120B6C8A828B83E5CD
:102C43008245832274F6120362122C3B600BA3A30A
:102C5300A3A3E07004790180027900023509C082E0
:102C6300C083EAFCEBFD7A007B0002342FC082C0F4
:102C7300837C007D0002342F74F412036274F31218
:102C830008D7EAFEEBFF8C0A8D0BC3EC94F8ED94A6
:102C9300FF4007EE4F7003022D34750800750900DD
:102CA300802E8518828519837401F012309F120AD1
:102CB300991230AD60137403120A99AC82AD83EE9E
:102CC300FAEFFB121CE8E97049E5082401122ECD46
:102CD300902296E4125042E50898E509995052E58E
:102CE3000875F012A4F8AAF075F012E509A42AF900
:102CF300125B8760D4EE4F70A974FF650A70047489
:102D0300FF650B60C412308F650A7004A3E0650B86
:102D130070B7E50875F012A4F508A8F075F012E590
:102D230009A428F50974312508FA740B3509FB80C9
:102D3300047A007B000236A574F412036274F31262
:102D430008D7750800120B728A0A8B0BAE0AAF0BF9
:102D5300EE4F602A851882851983740112346FF847
:102D6300A3E0F9740B120A99123583120B127C1229
:102D73007D0079FFEEFAEFFB12147E750801122B2A
:102D830046500990108D7401F0120EF0A908023616
:102D9300A574F7120362E9FE74FE6A700374FF6B95
:102DA3007800790070058052122A18122E21504A99
:102DB300E8FCE9FDEC75F012A4FCAFF075F012ED40
:102DC300A42F122E2DF460E0E8FCE9FDEC75F0125F
:102DD300A4FC75F012EDA42FFD74312CF582740B55
:102DE3003DF583E06A7003A3E06B70BC8009122E8B
:102DF3003114C394044017122A18122A0C5018EEE7
:102E030070EC122E3164016005E0640370E9123046
:102E130080FAA3E0FB80047AFE7BFF02346A9022EF
:102E230096123F36C3E89CE99D22122F8122E8FACD
:102E3300E9FBEA75F012A4FAACF075F012EBA42CDE
:102E4300FB74352AF582740B3BF583E022120B8465
:102E5300023432C082C083790180F274F0120362BB
:102E63008A0A8B0B7A047901120B428A0C8B0DEAC6
:102E7300450D603EEAC333FAEB33FB1215148A089F
:102E83008B09AE08AF09EE4F60237AFE7BFF120B6E
:102E93008A74FE6A700374FF6B601B850882850960
:102EA3008312347AE5082402122ECD80E1750C00DA
:102EB30080047E007F00850A82850B83E50CF0EE9B
:102EC300FAEFFB023EEBE5082407F508E5093400B9
:102ED300F50922902296123F36C3EA9CEB9D22E429
:102EE30093FA740193FB221214727403221254A9ED
:102EF300E4F09082A922E88E828F83A3A3A3A3A3E5
:102F0300A3A3A3122F1B7401122F1BA3F0EE2410F3
:102F13001254ACE4F0A3F0221238ECA3A3A322C012
:102F230082C0837A007B00800419122F4C122ED6A4
:102F33005010122F6BC3940550F0E970EC122F550B
:102F430080047A007B00023432EA24010AEB340065
:102F5300FB22EA75F012A4FA75F012EBA428FB74B5
:102F6300312AFA740B3BFB22EAFCEBFDEC75F01201
:102F7300A4FCA8F075F012EDA428122F8122FD7491
:102F8300352CF582740B3DF583E02274F71203624E
:102F930074F31208D77E007F00023033E50875F022
:102FA30017A4F8A9F0125DE8FAA3E0FBEEF8EFF935
:102FB300E875F012A4F8ACF075F012E9A42C123005
:102FC3008E6A7003A3E06B603FE50875F017A4F801
:102FD300AAF0EA125DE7F8A3E0F97401120A99E096
:102FE300687003A3E0696020E50875F017A4F8EAA8
:102FF300F974AD28FC740C39FD7403120A99AA8282
:10300300AB83121CE8E96014E50875F017A4F8A96E
:10301300F074AB28FA740C39FB12102205089022C5
:10302300A8E493F8E508C3985003022F9F12307762
:1030330090229612612E5039EEF8EFF9123080F497
:103043007003A3E0F460E68518828519837401F0A8
:10305300EEF8EFF9E875F012A4F875F012E9A42A76
:10306300F912309F120A991230AD60C175080080C1
:10307300AD023465EE24010EEF3400FF22E875F053
:1030830012A4F8AAF075F012E9A42AF912309322D7
:10309300743128F582740B39F583E022743328F5F3
:1030A30082740B39123EDA740B22E8F0A3E912356D
:1030B3008B120B2AE922C082C08390033D74E2F095
:1030C300A3740DF090033F74DCF0A3740DF0900330
:1030D3004374FCF0A3740BF002343274F7120362EE
:1030E300EAFEEBFF900377E06408601BE064046092
:1030F300168E828F83E054036401704812343912B0
:1031030039E1E06406703D8E828F83A3A3E064FE01
:103113007003A3E0F4602D8E828F83A3A31234F493
:10312300900368E0687003A3E069700BEE2415F563
:1031330082EF125B6E6008120E90E9F508800812A8
:103143000E9680F67508C2EEFAEFFB12151A0225E9
:10315300E274F41203628A088B098A828B83E0F893
:10316300A3E0FAE82AFAE43400FB1215148A0A8B66
:103173000BAE0AAF0BEE4F6063850882850983E0CF
:10318300FC7D00790012147E8E828F83A3A31264C8
:10319300A3120ED28E828F83A3A3A3A312347A85A4
:1031A3000882850983E0F8EE28F8EF34001234FC36
:1031B300850882850983A3E0C0E0EE240D12549BA9
:1031C300D0E0F0120EE4EE240E12549BE9124B4DA4
:1031D300E0C0E0EE241112549BD0E0F0EEFAEFFBD6
:1031E3000236AA74F612036274EB1208D7EAFEEBF6
:1031F300FF12476F600302328A7A077B00121514AD
:1032030090033912347A12476F60788E828F83125B
:103213000A7690033A1239E4120A82126367C0E015
:10322300123296D0E0F0EE2405FAEF3400FB8A0860
:103233008B098A82F583E0C0E0123291D0E0123626
:10324300A1E0C0E0123291A3D0E01234E6120A7674
:10325300851882851983120A8288828983E0C0E0F7
:103263007405120A99D0E0F0850882850983E0C0CD
:10327300E07404120A99D0E0F07407120A99123329
:10328300CC8006791080027901741502350612325A
:1032930096A322900339E0FAA3E0F5838A82A3A3DD
:1032A300A3A322C082C08312476F600D900339121B
:1032B3005079900339E4F0A3F0120E00120FC2020A
:1032C300343274F012036274EB1208D7ECFEEDFF94
:1032D30089087425120A99780C120A3C7429120A77
:1032E30099E0F9742A120A99E0FC742B120A99E006
:1032F300FD740F697005740F6C60129010D4E06454
:1033030002700579C10233C7E9C39C40F690037884
:10331300780C120A5AE50890037EF0E990037CF0DA
:10332300ECA3F0ED90037FF074FF6A700374FF6BFE
:10333300701D9010DFE0F47003A3E0F47005121425
:103343008A800C9010DF12344FE8F0A3E9800790D5
:103353000375EAF0A3EBF0EE4F6017EEFAEFFB1202
:103363001082E96401700BEEFCEFFD7A897B031296
:103373001CEE900368E4F0A3F090036BF0A3F090CD
:103383000388F09010D4E06402700890037C740FFB
:10339300F0A3F09003777405F014120A99E4F09007
:1033A3000378120A76851882851983120A8290039C
:1033B3007EE0C0E07405120A99D0E0F07407120AA7
:1033C300991233CC7415023EE8E412358B121D18A2
:1033D30022C082C083900338E070031217F0120BEF
:1033E300CC804CC082C083900338E090108C700472
:1033F300E4F0802D7401F0900338E0F460237C4105
:10340300E0C394415002E0FCECF8E0C398F0EC75A3
:10341300F0E8A4CCA8F075F003A428FD7A80123F4D
:103423003E7A8C7B107941121D068003120B78D0F3
:1034330083D0820207F5EE1254AA22E0F508A3E036
:10344300F5092212344A22122822A322123EDC90CA
:1034530003752274F7120362EB90037FF0120DEEF3
:103463008005740D1208437F0102057D123475A394
:10347300E0221234E6A322EAF0A3EBF02274F7125F
:10348300036274F81208D7EAFEEBFF790090037722
:10349300E06408704485188285198374FDF0A37471
:1034A300FFF0120ECC7402120A9912347A740512C8
:1034B3000A99E4123475E0C0E07404120A99D0E06A
:1034C3001234E1C0E07406120A99D0E0F0740712D6
:1034D3000A99E4123587120F0E7408023467123406
:1034E300E6E022F08E828F8322F08518828519838D
:1034F30022123EDC22E0F8A3E0F91254A9E8F0A37B
:10350300E9F0221208437F0202057DC082C0839046
:103513000349748CF0A3740CF09003EF7468F0A368
:10352300740FF090034D74C2F0A3740CF090034F2A
:10353300748CF0A3740CF090035174C8F0A3740C52
:10354300F002343274F412036274F91208D78A0851
:103553008B098C0A8D0B8518828519837808120ACA
:103563005A7404120A99E9F07405120A99E4F07482
:1035730006120A99E4123587120BB474070236A7B0
:10358300E8F0A3E912358B221234ECAA82AB832232
:1035930074F41203628A088B098A828B831254B7EC
:1035A300EE4F700302369F90031212477260158A22
:1035B300828B83A3A3E0F9EEFAEFFB900313123996
:1035C300E4121EB58E828F83A3A3A3A3A3A3A3A3F5
:1035D300A3E0640270748E828F83A3A3A3A3A3A327
:1035E300E054027003023671850882850983A3A320
:1035F300E064E960798E828F83A3A3A3A3A3A3A32B
:10360300A3A3A3E070149010D7E0048E828F83A34A
:10361300A3A3A3A3A3A3A3A3A3F08E828F83A3A394
:10362300A3A3A3A3A3A3A3A3E0141236A1A3A3A3B9
:103633007404F09010D8124EF2E8F0A3E9125FCBB5
:103643008B0BEA450B70031259A98E828F83A3A3B8
:10365300A3A3A3A3A3A3A3E0640260128E828F8318
:10366300A3A3A3A3A3A3A3A3A3E06406702E8E82A4
:103673008F83A3A3A3A3A3A3E0A2E0501F85088283
:10368300850983A3A3E0F9EEFAEFFB121D968E8260
:103693008F83A3A3A3A3A3A3E054FEF0800912384E
:1036A300E822740D1208437F0402057D74EC1203B3
:1036B3006274DD1208D7EAFEEBFF8C088D097437BC
:1036C300120A99780C120A3C750A007405120A99B9
:1036D300AC82AD83120AB27412120A99E0700874B4
:1036E30015120A99E060207405120A99E0A2E650C7
:1036F3001E8E828F83A3A3A3A3A3A3A3A3A3124B6F
:10370300EC120F44E960087903121CD60238CE7418
:1037130005120A99E0540C64047005750B018003CB
:10372300750B00E0A2E55035750A01E50BA2E040F8
:103733002C120ED28A108B11A810A911123439E061
:10374300687003A3E06960157405120A991264AAEC
:10375300124BE8121DA2E96004790480AC740512CF
:103763000A99E0A2E650227406120A99E054037003
:10377300187405120A99E0540C640C600CE0540CA4
:103783006408600575100180037510007405120A42
:1037930099E05403F8740268700C1264AA124BE89F
:1037A300120AC40238CE740168703AE510A2E050E0
:1037B300031238D67405120A99A882A983740312D6
:1037C3000A99E8F0A3E9123ED0851882851983127D
:1037D30038E0E0C0E07402120A99D0E01235871293
:1037E3001E860238CEE860030238CE90035FE064A1
:1037F3000170108E828F83A3A3A3A3A3A3E07003FE
:1038030002375C7422120A997402123ED0741A129F
:103813000A99123500E510A2E050087405120A99BE
:103823001238D6E50BA2E0506AEE240FF582EF12B0
:103833005B6EC0E07417120A99D0E0F09003141283
:10384300477270030238CE120ED28A128B13A8125B
:10385300A913741A120A99E0687003A3E069706BE4
:10386300780C120828780A1208347808120830A94C
:1038730010740C120A99AC82AD837421120A99AAAE
:1038830082AB839003141239E1121EB57407120838
:10389300438038780C120828780A12083478081202
:1038A300083090037512064CEE2412F582EF12587D
:1038B3009C7423120A99AC82AD83740E120A99AADE
:1038C30082AB83121D8A74091208437423120843BE
:1038D300025F961264AA125087120AB822E8F0A374
:1038E300E91238E8221238EC22F08E828F83A3A3E8
:1038F300A3A3A3A32274F71203621216DC02346A91
:1039030074F71203621216E202346A74F712036246
:103913001216EE02346AC082C0831216E8023432F1
:1039230074F71203621216F402346A74F712036214
:103933007409120A99E0F50878081208341217007E
:103943007401023467C082C08312170C023432C080
:1039530082C08312171202343274F71203621217F1
:103963001802346A74F7120362EAFEEBFF890874E3
:1039730001650870147900120D049022B3E493FCDE
:103983007900EEFAEFFB120C7A02346A74F4120334
:103993006274F91208D7E9FE8A088B098C0A8D0B29
:1039A3007413120A99124BEC9005A5124772602703
:1039B300EE851882851983F07401120A997808122A
:1039C3000A5AEAF8EBF97405120A9912358390053D
:1039D300A51239E1121EB502357EFB90034BE0F8C8
:1039E300A3E0F583888222C082C083121748023481
:1039F3003274F712036290108FE0F97E00800B128D
:103A03005B5A540D64017001190E123BEE5003E929
:103A130070ED02346A74F7120362901090E0F97E3D
:103A230000800B125B5A548D64817001190E123B96
:103A3300EE5003E970ED02346A74F2120362890BEB
:103A4300E975F006A4240CF508E5F0122ED18A0CD2
:103A5300E508250CFAE5093400FB1215148A0C8BD2
:103A63000DAE0CAF0DEE4F6027AC08AD0979001217
:103A7300147E123439E50BF0EE2508F8EF3509F919
:103A83008E828F83A3A3A3A3A3A3A3A3A31235000F
:103A9300EEFAEFFB0249E774F6120362EAFEEBFF6C
:103AA300120C5690108EE0F8E9C398400990034534
:103AB300124BEC120C5CEE2402F8EF1251FC900353
:103AC300471250B6900347E004F0EEFAEFFB120CF6
:103AD30062850882850983E00256B2C082C0837979
:103AE30000900345800109124BEC8A828B83E582A7
:103AF300458370F202343274F7120362EAFEEBFF7D
:103B0300EE4F6056900345124772604E8882898358
:103B13007A007B00EE65827003EF6583600FAA82F3
:103B2300AB83123B60E5824583602F80E7900345BA
:103B3300123B6C687002EF698E828F8370081234B7
:103B4300F49003458003125FA8123500EEFAEFFBF1
:103B5300121E56EEFAEFFB12151A02346A123B6478
:103B630022123EE08882898322123EDCEE22C0824A
:103B7300C083900345800488828983124772600B57
:103B830088828983124224EC4D70EC8A828B83E411
:103B9300F0A3F0E849600688828983800390034597
:103BA30012347A02343274F71203629003458004AC
:103BB3008A828B83123BE94B60257E0080010E12C3
:103BC3003BEE50ECEE75F006A4FCADF0EA2CFCEBFA
:103BD3003DFDEC2410F582ED123C3E70E180047A49
:103BE300007B0002346A12508BEA22123C47EEC378
:103BF300982274F71203627D0080010D123C43ED9D
:103C0300C3985034ED75F006A4FEA8F0E8FFEA2E41
:103C1300FEEB3FFFEE2410F582EF123C3E70DCED2D
:103C230075F006A4FEE8FFEA2EFAEB3FFBEA241147
:103C3300F582EB125B6E4CF002346A125B7A6922F6
:103C4300123C47221264B4EB3400F583E0F822748B
:103C5300F6120362120D7C7A007B008025EAF8EBF2
:103C6300F9E875F006A4F8ACF075F006E9A42C1297
:103C73005060126375A3E4125156F0A312637B12D2
:103C830064F290229E122B5040D37A007B00801C5A
:103C93008A088B09740378081209D8124B14A37489
:103CA300FEF0A304124F36A3E41264F29022A7128B
:103CB3003CF140DC7A007B00801D8A088B09740389
:103CC30078081209D874D31257E6740F12602D7452
:103CD300FEF0A3041264F29022AD123CF140DB909B
:103CE30022B1E493900353F0123CFB023509E493B1
:103CF300F8C3EA98EB9400227CE87D037A107B00FA
:103D03009003C2E0F91215CE2274F012036274F527
:103D13001208D78A088B09890A8C0BE9A2E0501490
:103D23007508FC7509FFA2E15005D2E4023DCED22D
:103D3300E3023DCE1249D37003A3E0697005790015
:103D4300023E9BAC0A7902AA08AB09120D58E9603E
:103D5300EDE50AF50C780C12083479027CFE7DFF40
:103D6300AA08AB0912474E120843E96003023E99C1
:103D7300E50AC2E5F50A9003B5E07051E50AA2E64B
:103D8300404B7403120A99AC82AD83AA08AB0912A3
:103D93000B06E9703212406F8A0C8B0DA80CA90D2B
:103DA300E8FEE9FFE8496025EE24020A0AEF12283B
:103DB30060601AEE2402FCEF3400FD7403120A99CA
:103DC300AA82AB83121CEEE50AD2E5F50A900348FA
:103DD300E0F50C900368E0F50EA3E0F50F780E1202
:103DE30008307D017C00900348E0F9AA0EAB0F1266
:103DF3000D107402120843E9F8900348E004F0E858
:103E03006003023E99E50AA2E55004740E80027431
:103E130006C0E07401120A99D0E01254C88A0E8BCE
:103E23000FAE0EAF0FEE4F6069123EB9123ED0884F
:103E33008289837401F07478550AA31264BAE50C7D
:103E43001264BAA3E508F0E509123EA8E4F0E50A16
:103E5300A2E5500F7403120A99AC82AD83E82406DD
:103E6300123E9F8E828F83A3A374FDF0A374FFF091
:103E7300E50B60159022B4E493F8E50BC398500961
:103E8300EE241312549BE50BF0EEFAEFFB120BA892
:103E930080067910800279C7740B8049FAE93400EF
:103EA300FB121CEE2288828983A3A3A3A3123EB430
:103EB3002212522FA322EE24171254AC7401F012D3
:103EC3000ECCEE241A1254ACEAF0A3EB22F01264E7
:103ED300AE3400123EDA22F583123EE022E0F8A36C
:103EE300E0F922740D1208437F0802057D74F6126F
:103EF30003627A007B101259B660089003D47401F0
:103F0300F08029900646E064019010D57006E0FC2D
:103F130079018004E0FC79037A007B00120C7A902B
:103F2300229C123F327A007B10123F400235091265
:103F33003F3622E493FC740193FD227B009003C27D
:103F4300E0F91215C82274EC1203628A088B098CFB
:103F53000C8D0D890E7414120A9912492D741612C0
:103F63000A99E0F510A3E0F511120F44E960077A0E
:103F7300FF7BFF02406C9010D4E0640260030240B8
:103F83005F7900AA08AB09120D5EA90E120D528AC1
:103F9300128B13AE12AF13EE4F70030240478E82A3
:103FA3008F83A3A3A3A3A3E064018E828F83A3A320
:103FB3007069124BEC8E828F83A3A3A3A3A3A3E008
:103FC300541860439022B2E4938E828F83A3A3A3F9
:103FD300A3F0EA650C7003EB650D6014EA650A70E3
:103FE30003EB650B600AEA65107003EB6511701F44
:103FF3007810120830AC0AAD0BAA0CAB0D121040AE
:10400300740212084380089003671259A0A3F07446
:10401300FE6A700374FF6B601D804EA3A3A3E0646C
:104023000360298E828F83A3A3A3A3A3E0640470F8
:10403300057AFE023F748E828F83A3A3A3A3A3E01A
:10404300640270089003B4E06402701012406F8B36
:104053000BEA450B6006AA08AB09800DAA08AB0959
:104063009003491239E1121EB5025F96900375124F
:1040730047541210042274F7120362EAFEEBFF1294
:104083000B5AE9700AEEFAEFFB120B66E96006EED3
:10409300FAEFFB80047AFE7BFF02346A74F01203AA
:1040A300628A0A8B0B8C0E8D0F8909750800120F1B
:1040B30044E979006003024216AA0AAB0B120D5EB3
:1040C300A909120D528A0C8B0DAE0CAF0DEE4F6089
:1040D300198E828F83A3A3A3A3A3E06402705590D8
:1040E30003B4E064027003024214AA0AAB0B900308
:1040F3004F1239E1121EB5120B6C8A0C8B0DA80CF2
:10410300A90DE849700302421488828983A3A3A3FB
:10411300A3A3E0A2E04003024214750C01A2E15004
:10412300687901AC0AAD0BAA0EAB0F120CAAE970A9
:10413300640242148E828F83A3A3A3A3A3E0640328
:104143007005750C0280528E828F83A3A3A3A3A351
:10415300E0640160030242149003751242248E82CC
:104163008F831245798A0C8B0DA80CA90DE8496041
:10417300D19022ABE493FA88828983E0C39A50C238
:10418300A3E0600302421480B988828983A3A3A3B6
:10419300A3A3D2E1F0EE4F603A8E828F83A3A3A351
:1041A300A3A3A3E05418602B7508018E828F83A309
:1041B300A312064C750CFE750DFF780C12083079AE
:1041C30000AC0AAD0BAA0EAB0F120D7074041208EB
:1041D30043803E900368E0650E7004A3E0650F70B2
:1041E300149022B3E493FCA909AA0AAB0B120C7A2C
:1041F300750801801CA90CAC0AAD0BAA0EAB0F12FB
:104203000CAAE9700C750801A909AA0AAB0B120DD7
:1042130004A908023EEBE50C2415F582E50D1254C2
:10422300AF124F0C2274EA12036274F01208D78A99
:104233000C8B0D8C088D097426120A99E0F514A3D2
:10424300E0F5157512069003F5124772602390038B
:1042530075124224AA08AB0912102E8A108B11EA98
:104263004511600D8A828B83A3E0700579000245B6
:1042730061E50C241DF50EE50D3400F50F850E8266
:1042830012475EF51388828983A3A3A3E0FA888289
:104293008983A3A3A3A3E0F9EA2400FEE439FFAAD8
:1042A30008AB09120D0A850E82850F8312459CE027
:1042B30029F50BE50AA2E5500375120E7487550A1A
:1042C30070177418550A6418600FE50C2417F582EB
:1042D300E50D125B6E651260077901121CD6808CA6
:1042E300530A78C3EE94F8EF94FF501D7900EEFA69
:1042F300EFFB12456B601288828983A3A3A3A3A358
:10430300A3E05418600302426F78081208307D005E
:1043130012458F120843E9F8740368700302426F71
:10432300E860030243DA7418550A700302448FE508
:104333000AD2E0F50AA2E45004D2E1F50AA90A126E
:104343004BE512456B605388828983A3A3A3A3A380
:10435300A3E05418604488828983A3A3A3A3A3E0A2
:1043630064017036E51045116030900375124224E4
:10437300888289831245798A0E8B0FA80EA90FE8CC
:1043830049601788828983A3E0600F8510828511B5
:1043930083A31256BD500302426FE50AF50E780E51
:1043A300120834124582120843E9702B7C007D0009
:1043B30085148285158374FFF0A3F0850C82850D27
:1043C30083A3A3A3A3A3A3A3A3E06003124219A9F6
:1043D3000B124BE5121706851482851583E0F470E2
:1043E30003A3E0F460399003B4E064027003024273
:1043F3006F12491EE0FAA3E01239DD121EB5EA6519
:10440300087003EB6509600302426FEEFAEF12399D
:10441300DD121EB5851482851583EAF0A3EBF078CF
:10442300081208307D0112458F120843A90AEEFADB
:10443300EFFB120D5E8A088B09A808A9099003688F
:10444300E0687003A3E0696003024552EEFAEFFBF4
:10445300120B6C8A088B09A808A909E849606E88C1
:10446300828983A3A3A3A3E06401600D8882898367
:10447300A3A3A3A3E064027054851882851983ACB7
:1044830082AD83EEFAEFFB120B068055900361E0D9
:10449300600FE50AF50E780E1208341245821208F1
:1044A30043E50AF50E780E12083479027CFE7DFF8F
:1044B300EEFAEFFB12474E120843E960030243DAB8
:1044C30085148285158374FFF0A3024421120ECC58
:1044D300EAFCEBFD851882851983AA82AB83121C43
:1044E300EE850C82850D83A3A3A3A3A3A3A3A3E0BB
:1044F3006401700F1242197408120A99AA82AB83DD
:10450300121CEE1247281253344430F5087808126F
:1045130008347401120A9985820885830978081280
:104523000830740B120A998582088583097808126A
:104533000830E513F50878081208347900EEFCEF2B
:10454300FD124BE5120CA4740612084302426F12CB
:10455300472812549E12459CE50BF0120EE474108A
:104563001208437F0E02057D120D528A0E8B0FA88F
:104573000EA90FE84922A3A312508B12102E227901
:1045830001AC08AD0912508012474E22AC0BA9139F
:10459300125080120D1074022212533CA3A3A3A342
:1045A3002274F012036274F01208D78A0C8B0DEC9C
:1045B300FAEDFB750F089003F5124772601412565B
:1045C300B68A828B83E58245836007A3E07003028A
:1045D3004723124728340012475EF50B88828983EC
:1045E300124731E0FBEC2400FEE43BFF8882898321
:1045F300A3A3124731A3A3E0FBECF508E43BF509C1
:1046030088828983A3A3A3A3A3A3A3E0F50EE50A4A
:10461300A2E45003750F10A2E550067408250FF5A8
:104623000F748F550A700FE50C2417F582E50D12F0
:104633005B6E650F60087901121CD6024723530A8B
:10464300707800E50AA2E45022124728125B6E2418
:1046530008FCA3E03400FD7408120A99AA82AB8314
:10466300121CEE7808E50AC2E4F50AE50AA2E55051
:1046730028124728125B6E28F8A3E03400F9E824D7
:1046830008FCE93400FD851882851983AA82AB836F
:10469300121CEEE50AC2E5F50AAC0EA90BEEFAEF21
:1046A300FB120D16E9F87403686075900368E06EF9
:1046B3007003A3E06F605EE87054E50AF50F780FAE
:1046C30012083412473F120843E97054780A12085B
:1046D300347401120A9985820C85830D780C1208B3
:1046E30030740B120A9985820C85830D780C12089D
:1046F30030E50BF50A780A120834A90EAC08AD09A7
:10470300EEFAEFFB120CA474061208438012740431
:1047130068700D80B7780A12083412473F120843B5
:104723007410023EE8E50C241DF582E50D22A3A3D7
:10473300A3E0FC88828983A3A3A3A322790112495E
:10474300251254AF12475412474E22120CCE740155
:1047530022E0FCA3E0FDAA08AB0922F583123B6427
:10476300A3E0F50A88828983A3A3E0229003391288
:1047730050E72274E812036274F51208D7EAFEEBDD
:10478300FF8C088D0989147423120A99E0F50F74BC
:1047930024120A99E0F512A3E0F5137426120A997C
:1047A300E0F516A3E0F5177428120A99E0F50EA9AF
:1047B3000F120D1C8A108B117401120A997408F0E0
:1047C300E50EA2E450037410F0E50EA2E55004E0F8
:1047D3002408F0851882851983AA82AB83120F2CD3
:1047E3008A0C8B0DEA450D7003024905EA2417F57F
:1047F30082EB124917120ECCE50C241AF582E50D53
:1048030012549E12347A7403120A99AC82AD83AAAD
:1048130010AB11120B06E9601D12490F7403120A43
:1048230099A882A983E50C2418F582E50D12549EFC
:10483300E8F0A3E98024E50EA2E4501FE5106E70B2
:1048430003E5116F701512490FE50C2418F582E585
:104853000D12549EE512F0A3E513F012491E1249FE
:104863002D850A82F5837402F0A3E50E124935E51E
:104873000FF0EE850A82850B83A3A3A3F0EF850ACD
:1048830082850B83A3A3A3A3124935A3A3A3E5089E
:10489300F0E509850A82850B83A3A3A3A3A3A3F051
:1048A300AA10AB11120D0AE92514850A82850B8320
:1048B300A3A3A3A3A3A3A3F0750800E50EA2E4504A
:1048C30011AC12AD13E50A2408FAE50B123EA175EB
:1048D3000808E50EA2E55014AC16AD17E50A250845
:1048E300F8E50B3400F9E82408123E9F850C828515
:1048F3000D83A3A3E510F0A3E511F0AA0CAB0D12F1
:104903000BA8740B1208437F1002057DE50C2416D7
:10491300F582E50D1254AF7401F0221249251254A9
:10492300AF22E50C1264B5E50D22E0F50AA3E0F52C
:104933000B22F0850A82850B83A3A32274F2120350
:10494300628A088B09ECFEEDFF890A79001249D3CC
:104953007003A3E069700479018073750B01900300
:1049630068E065087004A3E06509601F750B0078B3
:104973000B120834A90AEEFCEFFDAA08AB09120FCB
:10498300807401120843E9F50B80417900EEFAEFD8
:10499300FB120D52EA4B602B8A828B83A3A3A3A342
:1049A300A3A3E05418601C7508FE7509FF7808126C
:1049B30008308A828B83A3A312064C1262CA1208A0
:1049C3004380097901EEFAEFFB120C2CA90B80143A
:1049D300120D5E8A0C8B0DA80CA90D900368E0687C
:1049E300221208437F0602057D74F41203627508E0
:1049F3001B75090E7A10125FD28B0BEA450B7003FD
:104A0300123CFB900353E014F0700C9022B1E4933A
:104A1300900353F0120D6A7E007F00806C8508823C
:104A2300850983A3A3A3A3E06059F46056E5082492
:104A330004F582E50912599A70498508828509832C
:104A4300A3A3A3A3A3E06403701979028508828555
:104A53000983124224850882850983A3A3124BECA0
:104A6300120CAA850882850983A3A3A3A3A3E064E8
:104A730001601085088285098374FEF0A304124B3C
:104A830046E4F0123077122EC99022A012612E4014
:104A93008C7E007F008039120E728E088F0974039A
:104AA30078081209D874932508FC740F3509FD7A28
:104AB300B67B0C120E60EA4B70DD8E088F0974030F
:104AC30078081209D8124B14126375E4F012307788
:104AD3009022A7E493F8C3EE98EF9400501B8E083E
:104AE3008F09740378081209D8124B1CE82407F5C0
:104AF30082E912599A70D680A17E007F00800A1243
:104B03004B27600214F012307712612B40F102360A
:104B1300AA124B1C888289832274932508F8740F88
:104B23003509F922EEF8EFF9E875F006A4F8AAF0D2
:104B330075F006E9A42AF9743328F582740F39F560
:104B430083E022124B4DA3A3A322F085088285099B
:104B530083A3A32274F712036274E11208D7ECFE55
:104B6300EDFF750800EE4F60728A828B83E0241C90
:104B73001259CB12477260638A828B83124BEC8586
:104B83001882851983AC82AD83EA241BF582EB126C
:104B9300589CEA241CF582EB124BE8120EB4740BFA
:104BA300120A99124BF07003A3E069702E7402127B
:104BB3000A99E064017024741D120A991239E1E024
:104BC30064017017741D120A991239E3A3A3E0F864
:104BD3008E828F83E0687003750801A908741F0231
:104BE30034671249253400F58312508B2212281E94
:104BF300E0682274F4120362E97024790090034D93
:104C03001239E1121EB58A0A8B0BAE0AAF0B74FE82
:104C13006E700374FF6F701A9022AEE49360137981
:104C23000190034D1239E1121EB58A0A8B0BAE0AAD
:104C3300AF0B120EF00231DF74F612036274F3123B
:104C430008D712148A8A088B09AE08AF0990036843
:104C5300E06E7003A3E06F60E9120ED8EA6E700293
:104C6300EB6F60DEEEFAEFFB120F44E970D4EE4F08
:104C730060D0851882851983E4F004120A99EEF056
:104C8300A3EF124C9EE970BA74FE6E700374FF6F4B
:104C930060B0EEFAEFFB740D02350612358B120B82
:104CA3001E22C082C083120EF00234327F0A020534
:104CB3007D74F2120362EAFEEBFF8C0A8D0B890806
:104CC300740E120A99E0F50974FC6E700374FF6F99
:104CD300700579000249E77900120D5E8A0C8B0D8D
:104CE300AE0CAF0D900368E06E7003A3E06F700627
:104CF300E509A2E650DCA9091261B8706179007A6E
:104D0300FE7BFF1261B87056741855097003024D8B
:104D1300EB780079008003122A189022A0122A0F40
:104D23004003024DEBE8FAE9FBEA75F007A4FAAC9D
:104D3300F075F007EBA42CFB74212AF582740E3B6B
:104D4300F583E0541870D0E875F007A4F8AAF0755D
:104D5300F007E9A42AF9741B28F8740E39F988823C
:104D63008983A3A3A3A3A3A3E054186009741855CC
:104D7300097003024CD588828983EEF0A3EFF074A7
:104D8300FE650A700474FF650B6003124F1288827C
:104D93008983A3A3A3A3A3A3E509F0A2E0500D88ED
:104DA300828983A3A3A3A3A3A3D2E2F0740165081A
:104DB30088828983A3A3A3A3A370387401124F36F7
:104DC300E0541860289022B2E49388828983A3A3D5
:104DD300A3A3124F0012102E8B0DEA450D600302A0
:104DE3004CD57800790080397902024CD79003675B
:104DF300E080D7E064017003024CD588828983A3E5
:104E0300A3A3A3A3A3E0541860079022B2E4938062
:104E130004900366E0123EA8E508F0024CD5122A7E
:104E2300189022A8E493FAC3E89AE9940040030295
:104E33004CD57A007B00804BEAFCEBFDEC75F00768
:104E4300A4FCAEF075F007EDA42EFD741D2CF582C5
:104E5300740E3DF5831254B7E8FCE9FDEC75F017C9
:104E6300A4FC85F00975F017EDA42509FD74AB2C9E
:104E7300F582740C3DF583E06E7003A3E06F609ED2
:104E8300122F4C9022A0122ED940AD123F32EC6A61
:104E93007002ED6B7088E875F017A4F8AAF075F04E
:104EA30017E9A42AF974AB28FE740C39FF7C177D2B
:104EB300007900EEFAEFFB12147E8E828F83124F7D
:104EC30018900375124EF2A3A3A3A3A3A3E8F0A320
:104ED300E9124EF87401F0EE240E12549B74011281
:104EE3004F20120211EE240D12549BE8024E1D12A4
:104EF300344AA3A322F0EE240F1254AC22F0124F33
:104F030009AA0AAB0B22900375E0FCA3E0FD2288FB
:104F1300828983A3A3E50AF0A3E50BF022F0124FE5
:104F230025229022ABE4932401F8E43400F97A02B9
:104F33007B0022123EB4A32274ED1203628A088B13
:104F430009890E1250694005790502503712174E30
:104F5300AA08AB0912513B90229E12503A650A707F
:104F630003E9650B70077AFE7BFF12513B90229E8B
:104F7300E4125042E50A98E50B99400302503512BA
:104F830050466012E50A75F006A4F875F006E50BC5
:104F930012509112151AE50E6018E50A75F006A471
:104FA300F8AAF075F006E50B1250BD701A790102EC
:104FB3005037E50A75F006A4F8AAF075F006E50B7C
:104FC30012509EE4F0A3F0E50A75F006A4F8AAF0E7
:104FD30075F006E50B12505EA312534A888289834B
:104FE300A3AA82AB831250AC8A828B83E0603F1208
:104FF3005046603A8E108F11751200781012082CEB
:10500300E50EC333FCE433FDE50A75F006A4F50AA7
:10501300A8F075F006E50BA428F50B7437250AF5FF
:1050230082740F350B124BEA122EEA1208437900F1
:10503300800279070261CE122B71E8229022961228
:105043005B5522E50A75F006A4F8AAF075F006E5AB
:105053000B125099F8A3E0F9E84922A42A1251F25D
:1050630088828983A322ECFEEDFF9022A9E493F8C2
:10507300E9C39822F58312508B12151A22E50C12FC
:1050830064B5E50D3400F583E0FAA3E0FB2212508A
:1050930099FAA3E0FB2212509EE022A42AF9743766
:1050A30028F582740F39F58322E50EF09010D6129D
:1050B30050B622E088828983F022125216F50CE959
:1050C3003400F50DE50EC333FAE433FB12151485F2
:1050D3000C82850D83EAF0A3EBF0850C82850D83AA
:1050E3001250E722123EE0E8492274F4120362EC04
:1050F300FEEDFF740C120A991234F4880889091220
:10510300513BAC0AAD0BECF8EDF990229E125143E2
:105113005021E875F006A4F8AAF075F006E91250DC
:105123005EE08E828F8312515612514C12350079F4
:1051330000800279040236AA120CE08A0A8B0B2241
:10514300122EE2C3EC9AED9B22123EDC8508828587
:1051530009832212522B2274F61203627E007F000F
:105163008028EEF8EFF9E875F006A4F8ACF075F0D6
:1051730006E9A42CF9743528F582740F125DD96AF7
:105183007003A3E06B605712307712612B40D31288
:1051930061267002E96F704674FE6A700374FF6BD8
:1051A300703C7E007F00800312307712612B502EFB
:1051B300124B2770F3EEF8EFF9E875F006A4F81236
:1051C30051E812521D6017125204F8E91251FC887B
:1051D30082125077850882850983E4F0A3F0EEFA02
:1051E300EFFB02350975F006E91251F022A42AF902
:1051F300743328F8740F39F9223400F988088909BF
:1052030022EEF8EFF9E875F006A4F875F006E91256
:105213005216221251F0E8240422A3A374FE125260
:10522300281250E722F0A30412522F22F088828919
:1052330083A3A3A3A32274F6120362EA241DF582B7
:10524300EB125334F9604BEA241DF582EB125B6ECB
:105253002402FCA3E03400FD12506D4003025327E7
:10526300780080298C828D83E0F508A3E0FFE508B0
:105273002400E43FF509E833FEE433FF747B2EF5A5
:1052830082740F3FF58312534A12532A08E8C399D5
:1052930040D28A828B83A3A3A3A3A3A3A3A3A31212
:1052A3004224900368E06C7003A3E06D700F7C7B75
:1052B3007D0F122787124BE8120CD48067EA241162
:1052C300F582EB125B6E605CFC74FF2CF0750801D9
:1052D300780812083475087B75090F7808120830AE
:1052E300E9F5087808120834EA2412F582EB125B18
:1052F3006EF5087808120834EA2415F582EB125487
:105303009E12064CECF91227871242218A828B8364
:10531300A3A3A3A3A3A3A3A3A3124BEC120CEC7408
:1053230007120843023509EC24020C0CED3400FD8E
:10533300221254AF12533CE022E0F8A3E0F5838835
:1053430082A32288828983E508F0A3E509F0227409
:10535300EA12036274FD1208D78A148B158C0E8D22
:105363000F890D7419120A991254B7741B120A99F2
:10537300E0F511741C120A99E0F50C741D120A99D8
:1053830012492D741F120A99E0F5106008E50CC349
:1053930033240480027402C0E07401120A99D0E03D
:1053A3001254C88A088B09EA450970030254938A88
:1053B300828B83A3A3E514F0A3E515125FC1E50E69
:1053C300F0A3E50FF0EA2413F582EB12549EE50DEA
:1053D300F0EA2414F582EB12549EE511F0EA241747
:1053E300F582EB125B6E64017040120ED28A0E8B53
:1053F3000FA80EA90F850882850983A3A3A3A3E0A1
:10540300687003A3E0696022EE4F6011E508241A77
:10541300F582E50912549EEEF0A3EF800CE5082413
:1054230017F582E50912549EE4F01254A21254B700
:105433008E828F837405F0A3E5107004E50C804819
:105443007401250C1254C17A008028850A82850BC9
:1054530083E01254BD850A82850B83A3E08E828F7D
:1054630083F0E50A2402F50AE50B3400F50BA30EDD
:10547300AF830AEAC3950C40D2120ED2EA1254BD8E
:10548300120ED2EB8E828F83F0AA08AB09120BA8FF
:105493007403024563EE240CF582EF1254AF22121B
:1054A30027981254AF22EE240BF582EF3400F583D4
:1054B30022900334E0FEA3E0FF228E828F83F0A3C9
:1054C300AE82AF832212358B120F2C22C082C0838F
:1054D300E9C333FCE433FDEA2CFAEB3DFBEA24FE9B
:1054E300F582EB34FF124BEA02343274F212036298
:1054F30089098A0A125069400479008040750800BE
:1055030080020508E508C39509502AE508C333F866
:10551300E433F9EE28F582EF39F583C082C08312B4
:105523000ED28A0C8B0DD083D082E0650C7004A35D
:10553300E0650D70CDE50A650870BE79010249E7A3
:1055430074F012036274F31208D78A088B098C0A69
:105553008D0B890C750D00120F44E979006003026D
:105563005645AA08AB09120D5EA90C120D528A0EFC
:105573008B0FAE0EAF0FEE4F70030256438E828F2A
:1055830083A3A3A3A3A3A3E0A2E24003025643126F
:105593000ED2EA650A7003EB650B7011780D1208E1
:1055A30034E4F50EF50F780E1208308044AA0AABE6
:1055B3000B120B60E9640170688518828519837486
:1055C30004F07401120A99124F1885188285198301
:1055D300AA82AB83120B1EE964017045750D017835
:1055E3000D120834E4F50EF50F780E120830750D20
:1055F30000780D120834780D1208347408120A99D1
:1056030085820E85830F780E1208309022B4E493BE
:10561300F9AC0AAD0BAA08AB09120CEC740712081B
:10562300438E828F83A3A3A3A3A3A3E0A2E1400D90
:105633008E828F83A3A3A3A3A3A3C2E2F0750D015C
:10564300A90D023EE674F6120362E9FE7900120D1B
:105653005EEEF9120D528A088B09A808A909E849D8
:1056630060061264FCF98002790402350974F612AB
:1056730003627E0790035CE070341256B68A088B8F
:1056830009A808A909E8496025900361E064018835
:10569300828983A3A3700B1256BD8882898350012C
:1056A300A3A3E0F912104CE9FEEE70027E07EEF9B7
:1056B300023509124F0912102E22E0FA88828983DB
:1056C300A3E0C39A2274EE120362EAFEEBFF890A97
:1056D3008C0C8D0B7412120A9912343E12579212CB
:1056E30050705051890E750F007403780E1209D84B
:1056F3007499250EF582740F350FF583E0F8E50CE8
:10570300C398502DE50B60247511007403781012B3
:1057130009D874932510F8740F3511F98882898399
:10572300A3A3A3A3A3A3E50C12579CF07900024CF7
:10573300AF790380F979007AFE7BFF125792E493E5
:1057430065107004790280E6E50B60E0890E750F41
:10575300007403780E1209D87493250EF8740F356C
:105763000FF988828983A3EEF0A3EF12579C124F9F
:1057730036E50C123EB074FF12637BE50AF090032A
:1057830066E088828983A3A3A3A3A3A3A3809C1217
:105793000D4CE9F5109022A7221264BEA3E508F090
:1057A300A3E5092274F6120362ECFF120D4C90225A
:1057B300A7125070502789087509007403780812DE
:1057C30009D874981257E6740F12602DE0F8EFC3EE
:1057D300985006EFF079008006790380027904027D
:1057E3003509EA2508F5822274F4120362EAFEEB16
:1057F300FF120D4CE9F50A9022A71250705019754B
:105803000B007403780A1209D87496250AF582747A
:105813000F350B124BEA801890034B124772600C42
:10582300EEFAEFFB1239E4121EB580047AFE7BFF19
:105833000236AA74F61203628A828B83A3A3A3A3FC
:10584300A3E4F0F88001089022ADE493F9E8C3994A
:10585300501E88081258948C828D83A3A3A3A3A3FC
:10586300A3A3A3E06970DFECFAEDFB120E78801EB0
:10587300E4936870198C828D83A3A3A3A3A3A3A32A
:10588300A3A37406F07A008C828D831259BF02356C
:1058930009741B2508F5827410125B7AF92274F4DB
:1058A300120362EAFEEBFF8E828F83A3A3E014123E
:1058B30059D6A3E0F9120E548A088B09EA450970F8
:1058C300030259978E828F83A3A3E070358A828B5C
:1058D30083A3A3A3A3A3A3A3A3A3E064028A828BAA
:1058E30083A3A3A3A3A3A3A3A3A360107406F07A23
:1058F300F08508828B831259BF0259977406F00210
:1059030059978E828F83A3A3A3A3A3A3E060738E6F
:10591300828F83A3A3A3A3E0607AEE2403F582EF2F
:1059230012599A706F9003551259A01259D6E01468
:10593300125FB8E06403705C8E828F83A3A3A3A37A
:10594300E0700DAC08AD09EEFAEFFB120D228044B6
:105953008A828B83A3A3A3A3A3A3A3A3A37404F007
:1059630012148AEA540F04850882850983A3A3A32A
:10597300A3F0A3E4F07A20FB1259B670171259A9C9
:1059830080128A828B83A3A3A3A3A3A3A3A3A3E0CD
:10599300640360AF0236AA125B7A14F022E08E82AF
:1059A3008F83A3A3A3227A207B009003C2E0F91282
:1059B30014CC22125FD48B09EA450922E0240C128D
:1059C30059CBE0F9120D9A22F8A3E03400F988824A
:1059D3008983221259DBA3221234E6A3A3A32274E0
:1059E300F612036279007E0080258E087509007423
:1059F3000378081209D874D32508FA740F3509FB04
:105A03008A828B83A3A3E06005120D2879010E908F
:105A130022ADE493F8EEC39840D0E9A2E07A407B4C
:105A2300009003C2E0F950151215DA8B09EA450913
:105A3300700E7C647D007A40123D0180031215D400
:105A430002350974F4120362ECFEEDFF7508D37599
:105A5300090F7C008045850882850983A3A3A3A33E
:105A6300A3A3A3E0F8EA2412F582EB125B6E68703D
:105A73001F8508828509831234F4125B72687003F0
:105A8300A3E069700B850882850983A3A3E07020D6
:105A93000CE5082408F8E5091251FC9022ADE493C3
:105AA300F8ECC39840B0E4936C700579000236AA11
:105AB300850882850983A3A3A3A3A3A3E070047924
:105AC3000180EA1261C61210048B0BEA450B600FCA
:105AD300850882850983A3A3A3A3A3A3E014F07C71
:105AE3000080010C8C0A125B485020EC125B806032
:105AF300F212308F6E7003A3E06F70E78508828522
:105B03000983A3A3A3A3A3A3E014F09022A8E4937F
:105B1300F8902296E49328F8A3E4933400F98508D7
:105B230082850983A3A3A3A3A3A3E0FAC3E89AE905
