:020000040000FA
:06000000020A960201DA7B
:03002B000208D1F7
:030033000206EDD5
:030043000207862B
:0300530002010B9C
:03006B000206D3B7
:1000830002016F0101FF0503015C105C105C105C51
:1000930010180F120F5C100D2400000000AB23009A
:1000A3000000000C0000000C0001040000361200E8
:1000B3000000000000F0120000000000000000003B
:1000C30000FFFF414C443235333020554152540038
:1000D30003010101002C050000007D05E803640015
:1000E3006400B801020200080000050207051E02B1
:1000F300051E0A03B80B020102F1FF021F00E0070D
:100103009651180002020612C0E074F21203F3A221
:10011300AFE433FED2AFE5A7FFE5A1F5085F5410C6
:1001230060061219C875A1EFE5085F54086008124C
:1001330019CE75A1F7802BEFA2E0C0D0E508A2E0AD
:1001430092F01209D3158182F05017906198E0F86C
:10015300900857E0C398A2D265D0335002E8F075F7
:10016300A1FEEEA2E092AF7F01020452C0E074F25E
:100173001203F3A2AFE433FED2AF9061A4E0F875AB
:100183009B00E59158540860087591F7121A168080
:100193002AE59158541060087591EF121A1C801BC0
:1001A300E8A2E0C0D0E591A2E092F01209D3158154
:1001B30082F05007E0C2E0F0121B609061A3E0F808
:1001C300E5E9585404600E121B3675E9FB90619300
:1001D300E0A2E640F2808BC0E074F21203F3A2AF18
:1001E300E433FED2AF9061A5E0F8E5BF5854046054
:1001F3000675BFFB121B78020165C3E498F8E49906
:10020300F912023E8026C3E49AFAE49BFBE920E755
:10021300E912023EE498F8E499F922C3E498F8E479
:1002230099F912023EE498F8E499F9C3E49AFAE4DE
:100233009BFB22EB20E7CFE920E7E0B90010BB00EE
:1002430008E88AF084F8AAF022E4FBC8FA22EB70EB
:10025300227B10C833C8C933C9335007C39AC3DBE1
:10026300F280069A50012ADBEAC833F4C8C933F492
:10027300C9FA2275F008E4C833C8C933C933C99A27
:10028300C99B5004C92AC93BD5F0ECFBC833F4C859
:10029300E4C9FA22080808EAC0E0EBC0E086F0E708
:1002A300A4FA180986F0E7A42AFA180986F0E7A445
:1002B3002AFA180986F0E7A42AFA1986F0E7A4FBBC
:1002C300E5F02AFA190886F0E7A42BFBE5F03AFAE1
:1002D300190886F0E7A42BFBE5F03AFA181809860B
:1002E300F0E7A4C5F02BFBE43AFA1908E7C5F0C61A
:1002F300A426F6E5F03BFBE43AFA1886F0E7A4F609
:10030300E5F00826F6E43B08F6E43A08F6D0E0FB0D
:10031300D0E0FA22E4CFC0E0E4CEC0E0E4CDC0E018
:10032300E4CCC0E075F020C3E633F608E633F60804
:10033300E633F608E633F6181818EC33FCED33FD14
:10034300EE33FEEF33FFC3EC9709ED9709EE970900
:10035300EF97191919400FFFEC97FC09ED97FD0969
:10036300EE97FE191906D5F0BEECF709EDF709EE85
:10037300F709EFF7191919D0E0FCD0E0FDD0E0FE42
:10038300D0E0FF222518C582C0E0E51934FFC583FC
:10039300C0E0E518C3958224F810AF08858319855A
:1003A30082188008858319858218D2AFCEF0A3E521
:1003B30020F0A37808E608F0A3DEFAEFF0A3E581C6
:1003C30024FAF8E608F0A3E608F0A3E608F0A30889
:1003D30008E608F0A3E608F0A315811581D0E0FE36
:1003E300D0E0F8158115811581E8C0E0EEC0E02268
:1003F300C0D02518C582C0E0E51934FFC583C0E02D
:10040300E518C3958224F310AF08858319858218F4
:100413008008858319858218D2AFC8F0A3E9F0A3B9
:10042300EAF0A3EBF0A37908E709F0A3D8FAECF01C
:10043300A3EDF0A3EEF0A3EFF0A3D0E0F0A3D0E0A0
:10044300F0A3D0E0F0A3E520F0A3E5F0F0A322852C
:100453001983851882E0C0E0A3E0F9A3E0FAA3E0E2
:10046300FBA37808E0F608A3DFFAE0FCA3E0FDA312
:10047300E0FEA3E0FFA3E0C0E0A3E0C0E0A3E0F55B
:10048300D0A3E0F520A3E0A3F5F010AF088583190E
:100493008582188008858319858218D2AFD082D0CF
:1004A30083D0E0F8D0E032120AF8B900030204EC7A
:1004B300E490030178AE790A8002F0A3D8FCD9FA5C
:1004C300900CAEAA82AB8390008678867901801562
:1004D300E493A3AC82AD838A828B83F0A3AA82AB1D
:1004E300838C828D83D8E9D9E775823A75839674B4
:1004F3000312084975820C75831E7400120849E8BB
:100503000375F0108E1A8F1B85821F85831E851835
:1005130082851983E0CEA3E0CF851F82851E83EBFE
:10052300C9EAC8EDCBECCAC3E833C8E933C9EA3337
:10053300CAEB33CBC3EA9EF51DEB9FF51CB3500406
:10054300AB1CAA1DEC33CCED33CDD5F0DAAE1AAF2C
:100553001B22D083D082ECC0E0EDC0E0E493A3FC87
:10056300E493A3FDED4C600D12062DEC24FFFCED8E
:1005730034FFFD80EFE493A3FCE493A3FDED4C6013
:100583000D120731EC24FFFCED34FFFD80EFD0E0CA
:10059300FDD0E0FCE493A3C0E0E493C0E02285191E
:1005A30083851882E0A3FEE0A3F5207808E0A3F694
:1005B30008DFFAE0A3FFE0A3C0E0E0A3C0E0E0A30C
:1005C300C0E0E0A3C0E0E0A3C0E010AF088582185C
:1005D3008583198008858218858319D2AFD083D08B
:1005E3008202084FD083D082E9C0E0E493A3C3869C
:1005F300F0C5F095F0F908E493A386F0C5F095F003
:10060300700BE493A3C3994005E9048002A3E47546
:10061300F002A42582F582E5F03583F583D0E0F975
:10062300E493A3C0E0E493C0E022C0E0C3E4939664
:10063300087401939618400FE493667008087401D8
:1006430093661870007019A3A3C3E493960874010A
:10065300939618A3A3400DD0E0D0E0D0E00205911B
:10066300A3A3A3A3A3A3D0E022D083D082C5F0E4A5
:1006730093A3C5F0C395F0F5F0E493A3C395F040BD
:1006830005E5F0048001E475F002A42582F582E516
:10069300F03583F583E493A3C0E0E493C0E02274D0
:1006A30004800474028000CCC0E0EDC0E0E518C310
:1006B3009CCCAD1950011D10AF068C188D19800606
:1006C3008C188D19D2AF1207CBD0E0FDD0E0FC22FD
:1006D300C0E074F21203F3E589A2E1500312188A11
:1006E300758900C2C57F01020452C0E074F212038F
:1006F300F3E58BA2E0500312188A758B00C2E880E1
:10070300E474028000CCC0E0EDC0E0E518C39CCCEB
:10071300AD1950011D10AF068C188D1980068C1869
:100723008D19D2AF1207A9D0E0FDD0E0FC22C0E0C2
:10073300C0F088F0E493667008087401936618703B
:1007430000A8F0A3A3700BD0F0D0E0D0E0D0E0027B
:100753000591A3A3D0F0D0E022D083D082CCC0E017
:10076300E493A3600612082A1470FAE493A36006C4
:1007730012091B1470FAD0E0FCE493A3C0E0E493E5
:10078300C0E022C0E074F21203F3A2AFE433FED25E
:10079300AFC2C0E5D1A2E4500312193EEEA2E0922B
:1007A300AF7F01020452CAC0E0E493A3C582CCC563
:1007B30082C583CDC583F0A3C582CCC582C583CD55
:1007C300C583DAE5D0E0CA22CAC0E0E0A3C582CC83
:1007D300C582C583CDC583F0A3C582CCC582C5833D
:1007E300CDC583DAE6D0E0CA227009080808226082
:1007F30016181818C6C333C608C633C608C633C688
:1008030008C633C6D5E0EA22C008C3E096F5080857
:10081300A3E096420808A3E096420808A3E09645A1
:10082300087001D3D00822C0E0E493A3D39C5010F6
:10083300E493A3C39C400AD0E0D0E0D0E002077960
:10084300A3A3A3D0E022C09FF59FE473D09F22D03F
:1008530083D082C09FE493C0E0740193C0E074022C
:1008630093F59F227404800A740380067402800245
:100873007401C0E0F404120882D0E0120AD32225E6
:1008830018F58210AF08F518400215198008F518FD
:1008930040021519D2AF85198322BB0102E722C09A
:1008A30082C08389828A83BB0003E08002E493D001
:1008B30083D08222C0D0251810AF08F51850020546
:1008C300198008F51850020519D2AFD0D022C0E024
:1008D300C0D0E8C0E0E5A8D2AFC2C7A2E792AFD0CC
:1008E300E0F8D0D0D0E0326016080808C6C313C6BB
:1008F30018C613C618C613C618C613C6D5E0EA220F
:10090300C3E0C696F608A3E0C696F608A3E0C6962B
:10091300F608A3E0C696F622C0E0E493A36C700940
:10092300D0E0D0E0D0E0020779A3A3D0E0222518DD
:1009330010AF08F518400215198008F51840021584
:1009430019D2AF22E76670100809E766700A080932
:10095300E76670040809E76622E066701008A3E002
:1009630066700A08A3E066700408A3E06622C3E089
:100973009608A3E09608A3E09608A3E096A2D265A2
:10098300D03322C3E096F008A3E096F008A3E096E4
:10099300F008A3E096F022E026F008A3E036F00882
:1009A300A3E036F008A3E036F022E627F60809E6CE
:1009B30037F60809E637F60809E637F622E026F6A1
:1009C30008A3E036F608A3E036F608A3E036F622DD
:1009D300C0E0E8C0E0E58124FCF8E6A2E7D0E0F857
:1009E300D0E022E647F60809E647F60809E647F6A7
:1009F3000809E647F622E657F60809E657F6080916
:100A0300E657F60809E657F622E056F608A3E0563D
:100A1300F608A3E056F608A3E056F622E056F008DF
:100A2300A3E056F008A3E056F008A3E056F02270C6
:100A33000422600D18C6C333C608C633C6D5E0F416
:100A43001822E4C396F608E496F608E496F608E45A
:100A530096F622600D08C6A2E713C618C613C6D5BC
:100A6300E0F322C6F4C608C6F4C608C6F4C608C630
:100A7300F4C622C3E7960809E7960809E79608092A
:100A8300E79622C3E09608A3E09608A3E09608A39E
:100A9300E0962275D0007581407518017519030021
:100AA3000204AAE0F608A3E0F608A3E0F608A3E030
:100AB300F622600C08C6C313C618C613C6D5E0F4E5
:100AC30022E6F008A3E6F008A3E6F008A3E6F02286
:100AD300CAC0E0E6F0A308DAFAD0E0FA22E0FAA30B
:100AE300E0FBA3E0FCA3E0FD22EAF0A3EBF0A3EC20
:100AF300F0A3EDF022E5C754F84401F5C7790122CC
:100B03002518F582E43519F58322C2AF75D69F0205
:100B1300000022120852A0B30112085297B4011226
:100B23000852E6B60112085239B801120852DCB86D
:100B33000112085227BA0112085245BA011208528B
:100B4300955E00120852A75E00120852F95E001269
:100B530008525A5F00120852E45F0012085288607C
:100B630000120852DC6000120852F56000120852AD
:100B73001B61001208525661001208529A6100125A
:100B83000852C16100120852126200120852C26276
:100B9300001208527A63001208524264001208528B
:100BA3001F6500120852A56500120852B4650012B1
:100BB3000852BF6500120852C86600120852D9666F
:100BC300001208524F6700120852E16700120852E0
:100BD300396800120852FF68001208523069001287
:100BE3000852756900120852826900120852166B86
:100BF30000120852796C00120852956D00120852C7
:100C0300FF6F001208520A7000120852147000128B
:100C130008521F70001208522970001208523370D4
:100C2300001208523E700012085249700012085216
:100C33007A70001208529E7000120852C27000129D
:100C430008522771001208526B7100120852877103
:100C530000120852FE710012085236720012085236
:100C6300827200120852DF7200120852C17400121D
:100C73000852477500120852187600120852287954
:100C8300001208527D7900120852A9790012085205
:100C9300F57A00120852457B001208529A7B001223
:100CA30008529B7C00120852337D00120852B57D16
:100CB30000120852557E00120852E0260012085214
:100CC300192700120852F328001208523229001281
:100CD30008527C2900120852212A00120852802A45
:100CE30000120852B42A00120852212B0012085293
:100CF3003E2C00120852462D00120852DC2D001221
:100D03000852233100120852CC3100120852A83283
:100D130000120852093300120852263400120852F6
:100D230050360012085207370012085211370012CA
:100D330008524437001208520B3800120852A638E2
:100D4300001208520B3900120852343900120852AB
:100D5300563900120852853B001208525C3C0012BF
:100D63000852A03C001208520D3D00120852C83D23
:100D730000120852FA3D001208523E3E0012085279
:100D8300713E00120852C63E001208521B3F001269
:100D93000852AF3F00120852114000120852794026
:100DA300001208522242001208520A43001208524B
:100DB3004C44001208527A46001208523A47001275
:100DC30008526949001208520C4A001208524A4A52
:100DD30000120852F64B001208520A4C0012085235
:100DE300144C001208523E4C001208524A4C001296
:100DF3000852694C00120852204D001208525F4DF0
:100E030000120852694D001208521D4E001208527A
:100E13001C4F00120852155000120852B250001213
:100E230008525451001208526B5100120852A25139
:100E330000120852C0510012085204520012085204
:100E43002952001208520F53001208527B5300120A
:100E53000852F55300120852045500120852435623
:100E630000120852A556001208525F57001208528A
:100E7300825700120852565800120852A158001205
:100E83000852E358001208523A5900120852715995
:100E9300001208529F5900120852D85900120852E2
:100EA300FD5900120852855A00120852A85C00121C
:100EB3000852075D001208529B5D00120852075E3C
:100EC300001208525B5E0012085203C60312085256
:100ED30042C6031208528ABB01120852E4BB011234
:100EE300085240BC011208528CBC01120852A7BC24
:100EF30001120852D8BC01120852F5BC0112085263
:100F030001BD0112085275BE011208528EBE0112B4
:100F13000852F5BE0112085208BF0112085216BF4B
:100F230001120852CABF01120852AEC00112085280
:100F3300B4C1011208523AC20112085244C201124A
:100F43000852B1C201120852C8C201120852FAC2B1
:100F53000112085233C3011208525DC30112085231
:100F6300BEC301120852DEC301120852FCC30112B0
:100F7300085242C40112085268C501120852B5C58D
:100F830001120852E4C5011208525AC6011208524E
:100F930082C601120852BBC601120852C9C6011209
:100FA300085221C70112085270C701120852AFC775
:100FB30001120852DFC7011208520BC8011208526E
:100FC30016C80112085234C801120852F6C8011299
:100FD300085200C9011208523BC90112085251C9F3
:100FE300011208525AC901120852AFC9011208521C
:100FF300C3C901120852D1CA01120852E4CA01122C
:101003000852F9CA011208529BCB011208521ECC96
:1010130001120852DCCC01120852E7CC011208522B
:101023000DCE0112085229CE011208527BCE0112B5
:101033000852BACE01120852CFCE0112085211CF74
:10104300011208525ED101120852DCD1011208527A
:101053004FD20112085271D40112085289D40112DD
:1010630008528CD40112085298D401120852ACD4FD
:1010730001120852B4D401120852E7D401120852E3
:1010830097D5011208520DD60112085280D60112CB
:10109300085234D701120852E9D70112085208D86E
:1010A30001120852A8D801120852B4D801120852EA
:1010B300DFD801120852E2D8011208524CD90112AA
:1010C300085274DA011208524CDB01120852D7DBC2
:1010D30001120852F0DC01120852ADDD0112085270
:1010E300E6DD0112085217DE01120852B7DE0112C3
:1010F3000852E7DE01120852C2DF011208525BE018
:1011030001120852E6E00112085297E10112085257
:1011130019E2011208524BE2011208528CE2011249
:10112300085271D202120852D6D20212085213D3B5
:101133000212085262D30212085278D502120852E0
:101143005BD702120852C5DA0212085200DB021200
:10115300085222DB0212085285DB02120852B9DB65
:1011630002120852DCDB0212085209DC0212085296
:1011730065DC021208525BBC02120852D9BC02128F
:1011830008520FBD021208527BBD02120852EEBE76
:10119300021208520ABF021208524FBF021208522B
:1011A300DDBF0212085236C00212085263C1021296
:1011B300085275C202120852D2C2021208523EC32A
:1011C300021208529FC302120852E0C302120852CD
:1011D3008DC4021208529FC502120852CAC50212D8
:1011E300085215C6021208525CC602120852EEC615
:1011F30002120852A9C70212085240B7031208523A
:1012030095B703120852C0BB03120852D1BB031295
:10121300085222BC0312085267BC0312085211BDC4
:1012230003120852087F00120852F3B30312085244
:101233004BB50312085220C802120852C5C8021245
:101243000852E5C80212085205C90212085219C908
:101253000212085271C902120852A1C9021208529D
:1012630022CB02120852C8CB02120852AACC021295
:101273000852FBCC021208523ECD0212085281CD15
:1012830002120852E7CD0212085208CE0212085287
:1012930094CE02120852C5CE0212085239CF02125E
:1012A3000852E7D002120852C1D10212085203D2E7
:1012B300021208525DD202120852F2FD02120852C3
:1012C30013FE0212085249FF0212085273FF021260
:1012D30008529AB50312085215B60312085220B6E3
:1012E3000312085241B6031208521EB002120852EA
:1012F30021B002120852DBB00212085206B10212E8
:1013030008524DB10212085272B10212085293B13F
:1013130002120852C7B10212085200B20212085256
:1013230029B30212085260B30212085280B30212A8
:1013330008521BB402120852E0B40212085217B545
:10134300021208528CB6021208522FB70212085228
:1013530028B80212085251B802120852A5B8021254
:1013630008526BB90212085299B9021208522EBBE5
:1013730002120852AFBB02120852E2BB0212085219
:101383002AE60212085234E60212085280E60212DA
:101393000852EEE6021208520FE70212085226E73D
:1013A30002120852D6E7021208526AEA02120852DF
:1013B30073EA02120852C6EA02120852EFEA021254
:1013C300085256EB02120852E7EB0212085229ECBC
:1013D3000212085273EC021208525BAA011208525D
:1013E30063ED02120852A2ED02120852E1ED02125D
:1013F300085216EE0212085228EE021208523AEE72
:101403000212085259EE0212085262EE02120852F8
:1014130018EF0212085258EF02120852258E0312D7
:101423000852F88E03120852128F03120852238FA8
:101433000312085238910312085284B3011208525E
:1014430009B0031208523FB00312085288B00312C6
:101453000852D8B103120852C1E20112085200E443
:10146300011208523CE401120852FBE50112085232
:1014730024E601120852B7E801120852FBE80112F0
:10148300085284EA011208521CEB0112085284EB41
:101493000112085225EC0112085267EC011208529E
:1014A300A7EC0112085232EE01120852A2EF011208
:1014B3000852C7F101120852F5F1011208521CF249
:1014C3000112085225F20112085280F20112085249
:1014D30013F30112085231F601120852B2F6011247
:1014E30008525BC703120852B8C5031208523A9D4B
:1014F300031208524D9D03120852EA9D031208522B
:10150300259E03120852409E03120852659E031241
:101513000852AA9E03120852DB9E031208520C9F24
:101523000312085292A003120852A2FE011208529B
:10153300D8FE01120852F4FE0112085236FF0112BE
:10154300085246FF01120852DBFF01120852E5FF61
:1015530001120852B1DC02120852D6DC0212085200
:10156300F3DC0212085210DD0212085238DD0212B7
:1015730008525FDD021208528FDD0212085248DE64
:1015830002120852C6DE0212085288DF0212085203
:1015930054E00212085210E10212085255E10212FD
:1015A300085241E20212085287E202120852EEE2A6
:1015B30002120852A6E50212085213E6021208525A
:1015C3008FA002120852E7A00212085291A1021240
:1015D300085239A20212085296A202120852EFA22E
:1015E3000212085203A302120852CDA40212085297
:1015F30048A50212085272A5021208522FA702121E
:1016030008524AA70212085299A702120852AFA71A
:1016130002120852BCA702120852F0A70212085283
:1016230006A8021208528CA8021208529BA80212A2
:101633000852F4A8021208524EA9021208529CA999
:1016430002120852A6AA0212085228AD0212085228
:10165300C2AD0212085204AE0212085299AE02122F
:101663000852B6AE02120852B9AE02120852BCAE0C
:10167300021208522FAF021208524AAF0212085246
:1016830076AF02120852B1AF02120852B4AF02127F
:101693000852C7AF02120852EEAF02120852E4C456
:1016A30003120852F0C4031208522AC50312085247
:1016B300BE9002120852E99002120852B59102122A
:1016C30008523A9202120852A39202120852EF925F
:1016D300021208526E930212085200940212085228
:1016E3008C9402120852CE94021208523A990212B2
:1016F3000852BA9A02120852F99A02120852C29B6D
:1017030002120852769C02120852269E02120852B6
:10171300B29E02120852008002120852BA800212CC
:1017230008522C81021208523B8102120852B581E1
:10173300021208522482021208522E830212085205
:10174300578302120852F783021208524584021289
:101753000852B58402120852E98502120852C5865E
:1017630002120852368702120852B3880212085234
:10177300758902120852108A021208526B8A0212E9
:101783000852D68A02120852DA8B021208529B8D33
:10179300021208523A8E02120852AC8E02120852FA
:1017A300698F02120852BFA30312085213A4031233
:1017B30008526BA403120852B6A40312085218A5C8
:1017C30003120852B1A50312085219A603120852B4
:1017D30025A603120852B3AD03120852E4AD031257
:1017E30008529EAE0312085204AF0312085275AF9B
:1017F30003120852C5960312085251980312085255
:1018030058BA0312085285BA03120852A3BA031234
:1018130008520ABB0312085245BB0312085289BB84
:1018230003120852E3C203120852F4C2031208520D
:1018330094C3031208523BB20312085249B2031273
:10184300085271C7031208524EC4031208525EC4F1
:101853000312085279C403120852DAC4031208525D
:10186300E1C10312085266C203120852CAC203122C
:101873000852CFC003120852F1C0031208525BC1D1
:101883000312085266C103120852AAC10312085276
:101893000FF7011208521DF7011208525EF70112E9
:1018A30008527AF70112085204F80112085226F876
:1018B3000112085292F801120852ADF801120852AF
:1018C300CAF801120852E3F8011208527FF9011213
:1018D30008523BFA01120852B2FA011208522AFBCB
:1018E3000112085276FB011208521CFC0112085225
:1018F300F8FC01120852B09203120852BE9203126E
:1019030008523893031208521C9403120852D595B7
:10191300031208521BC703120852BDF802120852E1
:101923002AF902120852EBF9021208525BFA021268
:10193300085264FB02120852DCFC0212085240FDFA
:101943000212085295FD021208529EFD021208521D
:10195300ADFD02120852C0FD02120852D6FD02125A
:101963000852DFFD0212085200800312085255800C
:10197300031208525182031208528382031208523F
:10198300A58203120852BE8203120852D7820312A1
:101993000852E183031208527C840312085228BDC3
:1019A300031208524CBD0312085265BD03120852BC
:1019B30098BD03120852C9BD03120852F7BD0312A2
:1019C300085259BE0312085268BE0312085272BE6F
:1019D300031208527FBE0312085260A60312085274
:1019E30086A603120852C3A603120852D2A60312F4
:1019F3000852F1A60312085259A70312085262A70C
:101A030003120852C1A703120852E5A70312085292
:101A1300A4A803120852B1A803120852C2A80312C1
:101A23000852C3FF02120852E0FF02120852F38465
:101A3300031208525186031208525E86031208529B
:101A4300718603120852908603120852A686031267
:101A53000852BA86031208522F870312085294873A
:101A630003120852448803120852198903120852B8
:101A7300298903120852388903120852B5C3031285
:101A83000852D9C30312085201C40312085229C4CD
:101A930003120852F0A80312085217A9031208529E
:101AA30038A9031208529DA90312085256AB031218
:101AB30008526FAB031208527BAB031208528FAB71
:101AC30003120852ADAB03120852B7AB031208520C
:101AD300C1AB03120852D4AB0312085227AC031252
:101AE300085260AC031208528FAC03120852DDACEB
:101AF300031208522CAD0312085247AD03120852C9
:101B030051AD0312085262AD03120852A8AD03127D
:101B1300085267C50312085281EF02120852ABEF55
:101B230002120852C7EF02120852DAEF02120852E9
:101B3300F0EF021208524DF00212085280F0021226
:101B43000852BCF402120852E2F50212085215F6CA
:101B53000212085261F6021208528DF7021208525D
:101B6300B5F702120852CAF702120852DAF7021244
:101B730008521EF8021208527FF8021208528FF818
:101B83000212085289BE03120852A4BE031208525D
:101B9300CDBE03120852E7BE031208520CBF031254
:101BA30008522BBF0312085243BF0312085271BFDE
:101BB300031208528BBF031208524CC60312085279
:101BC300BA9903120852C19903120852CD9A03120B
:101BD3000852FD9A03120852239B03120852469B94
:101BE30003120852689B03120852A29B0312085265
:101BF300089C03120852419C031208528D9C031245
:101C03000852BA9C03120852DA9C03120852C5B850
:101C130003120852D7B803120852C2B9031208526A
:101C23004FBA03120852BCBF031208522EC003124C
:101C330008526CC003120852ADC0031208529FA091
:101C430003120852BBA0031208520AA1031208523E
:101C530026A10312085257A10312085267A10312C7
:101C6300085253A2031208525DA2031208526AA239
:101C7300031208527AA3031208528EA303120852C6
:101C830097A303120852718903120852B68D0312E7
:101C93000852BB8D03120852C6C60312085290C6DF
:101CA30003120852F3C6031208523DC70312085227
:101CB300AFA90112085200A801120852BBA50112D4
:101CC300085242A501120852E9A4011208527DA448
:101CD3000112085254A40112085247A201120852D9
:101CE30013A201120852E0A101120852C4A1011269
:101CF3000852EAA001120852A2A001120852D79E6C
:101D030001120852579E01120852549E01120852A2
:101D13005B9D01120852299D01120852669C011213
:101D23000852919A01120852229A01120852F49908
:101D33000112085214B301120852CBB20112085215
:101D430083B201120852C1B10112085234B1011217
:101D53000852F19901120852DE990112085276993C
:101D63000112085265990112085227B10112085253
:101D7300469801120852109801120852D397011283
:101D8300085274970112085235AE01120852579146
:101D930003120852439701120852FE93011208528C
:101DA300EF92011208527E920112085243920112DD
:101DB30008520E92011208520292011208526291C5
:101DC30001120852A990011208527C8E0112085286
:101DD300088C01120852C68B01120852918A011213
:101DE3000852468A01120852788901120852CF8894
:101DF300011208526B8801120852A5880112085279
:101E030087AB01120852D2EC0200000080FBE4739E
:101E130000000000000000000000000000000000BF
:101E23001010101010100000303000000014285063
:101E3300000000000000000000000000002828FC53
:101E4300284850FC505000000000103854543018FB
:101E530014545438100000000044A8A8B0541A2A9F
:101E63002A44000000000020505060ACA898927CE7
:101E7300000000606020C0000000000000000000BF
:101E830000040808101010101010080804000000C7
:101E9300402010080408102040000000000000103B
:101EA30010D63838D61010000000000000101010B3
:101EB300FE101010000000000000000000000000F1
:101EC3000000606020C0000000000000FC00000073
:101ED300000000000000000000000000000060603F
:101EE3000000000204040408081010202020400011
:101EF300000000304884848484844830000000005B
:101F03000010701010101010107C0000000000383A
:101F1300444404081020447C00000000003844447A
:101F230018040444443800000000080818284848EE
:101F3300887C081C00000000007C40407844044476
:101F4300443800000000003C4480B8C48484847892
:101F530000000000007C444808101010101000001E
:101F6300000000788484487884848478000000002A
:101F730000788484848C740488F0000000000000DE
:101F8300003030000000303000000000000000008E
:101F93001000000000101020000004081020402052
:101FA3001008040000000000000000FC0000FC001A
:101FB300000000000000402010080408102040002A
:101FC3000000000078848484081010003030000082
:101FD30000000038449AAAAAAAB4423C00000000B8
:101FE300001010282828384444EE0000000000F8B0
:101FF30044447844444444F800000000003C4484D2
:102003008080808044380000000000F0484444444D
:10201300444448F00000000000FC44404878484035
:1020230044FC0000000000FC42404878484040E087
:1020330000000000003C448480808E84443800000B
:10204300000000EE4444447C444444EE000000009D
:10205300007C101010101010107C00000000007C99
:10206300101010101010101090E0000000EE444803
:102073005070484844EE0000000000E040404040FB
:10208300404044FC0000000000EE6C6C6C5454545F
:1020930054D60000000000EE64645454544C4CE4E5
:1020A30000000000003048848484848448300000A9
:1020B300000000F844444478404040E00000000041
:1020C30000304884848484B448380C00000000F84D
:1020D30044447850484844E600000000003C444033
:1020E3002018040444780000000000FE9210101031
:1020F300101010380000000000EE444444444444EF
:1021030044380000000000EE44442828282810101A
:102113000000000000D6545454546C2828280000B2
:10212300000000EE44282810282844EE0000000098
:1021330000EE442828101010103800000000007C26
:1021430088081020204044FC0000001C10101010D0
:102153001010101010101C00007010101010101030
:1021630010101010700000701010101010101010CC
:102173001010700000102800000000000000000094
:10218300000000000000000000000000000000FE4E
:1021930000606020C000000000000000000000009C
:1021A3000000000038441C24443E0000000000C02E
:1021B300404078444444447800000000000000009C
:1021C3003C444040443800000000000C04043C44FC
:1021D3004444443E000000000000000038447C40BA
:1021E300443800000000001C2420F8202020207820
:1021F30000000000000000003C48483040784438AC
:10220300000000C040405864444444EE0000000015
:102213000010000070101010107C00000000000877
:1022230000003808080808080870000000C0404093
:102233005C48507048EC0000000000701010101053
:102243001010107C0000000000000000F8545454EB
:1022530054D60000000000000000D864444444EE5B
:1022630000000000000000003844444444380000EB
:10227300000000000000F8444444447840E00000BB
:10228300000000003C444444443C040E00000000B1
:102293000000EC30202020F80000000000000000C7
:1022A3003C443008447800000000000010107C100B
:1022B3001010100C0000000000000000CC44444447
:1022C300443E0000000000000000EE4428282810CF
:1022D3000000000000000000D654545428280000D9
:1022E300000000000000DC48303048EC0000000033
:1022F30000000000EE442828101020E00000000039
:1023030000007C481010247C0000101010101010E6
:1023130010101010101010100001363601010001CA
:102323000201000103010001040106060502000089
:10233300070100340801000F090401010D0100FF2A
:102343000E08000017020000190100FF1A01000126
:102353001B0100FE1C0100081D0200001F010001FB
:1023630020010001210200002301000F24020000CC
:102373002601000127010008280200FF2A010007A7
:102383002B0102402C0100002D0100012E01000150
:102393002F0100FF30010B1C310800003A01000837
:1023A3003B01000F2F01000001037103010301032F
:1023B30001030103010322030203010310030003CA
:1023C30000030003000300030003000342030003B0
:1023D300240306030003000304031203250323035A
:1023E300250323030403040300030003000344033E
:1023F3000003000323030003650321003503810366
:102403000003050300030003000303007100300110
:10241300600011007000310220035004800010009E
:102423006100000014006300730072006200430047
:10243300000013000600000000000400120000006A
:1024430000000000000004000400370037003C02D5
:10245300440000000000000000006500000035009B
:1024630081000000050000008300000001017101EC
:10247300010101011101010131010101010180018A
:10248300100161013B0014006301730172016201D9
:1024930043010001130106013D013500040112014E
:1024A30000010001000100010401040133013301B3
:1024B3003C014401320136000001000165010001C5
:1024C300350081010001050182018301000103023E
:1024D3007102300160021102700201020202020263
:1024E3008002100261023A00410063027302720229
:1024F30062024302000213023800000200020402D7
:102503001202000200020002000204020402370069
:1025130037003C0244020002390000020002650257
:1025230000023502810200020502820283020002D8
:10253300C9EEDBDACAD0B0B2C1AAB5C2BFC6BCBC51
:10254300D3C3BBA7B5C7C2BCD5CABAC5C3DCC2EB2C
:10255300C8B7B6A8C8A1CFFBD7A8D2B5D7A8D7A26A
:10256300CEDECFDFCDA8D1B6B3CFD0C5C1A2D7E3DE
:10257300B4B4D0C2D6C2D4B6C7BFB4F3D4ADA3BA31
:102583000036000100060000000F000000000000FC
:102593000000000000000003FFFF00000403FFFF32
:1025A3000000FFFF0FF4010005C404032000010035
:1025B300030B000000000000000003010F010052A4
:1025C300170200C8160300CE160400D4160500DA5D
:1025D300160600E6161100FE16140004171500F87F
:1025E30016FFFF000003EAF5E5D5D5C5B5A595951A
:1025F3008585757565655555454535352525151508
:1026030005720FA20F780F7E0F9C0F900F8A0FA8F1
:102613000FAE0FB40FC00F840F6C0F660F0A3E0D81
:1026230002080D051A0D070E0D0CEA0C0DFC0CFF2C
:10263300000000160F00000B150B020002220F32E0
:102643000000065C106E1074103C0F7A10360F42B7
:102653000FBC10DA10E010C210CE10C81000011920
:1026630016181616152303000C0E020B040B0A078B
:1026730008000F00034948424D181725050200388A
:102683003C3E363B3B352B432C3030161819202368
:102693001A1C1E30303017181921301B1D1F30969D
:1026A3000FBA0FD410C60FCC0FB010801086109243
:1026B300108C100204020101010109020000000054
:1026C300000000BE040A0E001500040028000805DF
:1026D3000C0A030908FF1E1E0F0404100C74F712E2
:1026E3000387E99003B0F0900365E4F0121C0E90A9
:1026F30003B5E4F0A3F09003B1F0A3F0120E761249
:102703001C14900334E4F0A3F09026DB93FA7902CF
:10271300121C7402537674F2120387EAFEEBFF5421
:102723008060699003B0E0F91213C28A088B09EA4A
:102733004509604F7C0080010CEC75F003A4F8A9F7
:10274300F0742028F582742639F583E493F4602C21
:10275300E493F88508828B83E06870DCAA08EC7543
:10276300F003A4F8742128F582742639F583E493E1
:10277300C0E0740193F583D082121E11AA08AB093D
:102783001213B6EEFAEF6480FB0228E6EF542060E2
:102793001D120D988A088B09EA4509600A120CFC80
:1027A300AA08AB091213B6EEFAEF642080DAEEA2A0
:1027B300E0501A90036AE0640F700B7900120CC6A4
:1027C300E960031228E9EE6401FAEF80BB5420703C
:1027D300030228B4750C00123DBB8B09EA4509704E
:1027E300107C027D007A207B009003B0E0F9121583
:1027F3000C7C0079047A007B00120D748A088B0923
:102803008018850882850983A3A3A3A3A3A3A3A3F5
:10281300A37401F0850A08850B09E5084509606D75
:102823007C007904AA08AB09120D748A0A8B0B7514
:102833000C01E5082404F8E509123B5F24FFF0A32B
:10284300E034FF125E5270CC850882850983A3A30E
:10285300A3A3A3A3A3A3A3A3E0640170A5850882F4
:10286300850983A3A3A3A3A3A3E0540470948508B9
:1028730082850983A3A3A3A3A3A3A3A3A37406F09D
:102883007AB7850882850983122A158087120D4439
:102893007C0079017A007B00120D748B09EA4509EB
:1028A3007009E50C70057A20124D15EE642002279D
:1028B300CCEF5402600B120E70EEFAEF64020227A3
:1028C3008BEF54046019124EAC124DCC7901900376
:1028D30063125130120C0CEEFAEF640402278B7A68
:1028E300007B00022B1C900D071231B3120CDE2269
:1028F300C082C08374EA120931851882851983AABC
:1029030082AB83794B121C4A7408120B037402F0D6
:102913007409120B03AA82AB837950121C4A7413F5
:10292300120B03E41252FF121C6874160242D9748C
:10293300F712038774E1120931EAFEEBFFEE4F60F1
:1029430033851882851983AC82AD83120DBC74065E
:10295300120B03E0601E7417120B03E0FD740112E7
:102963000B03E0FCEEFAEFFB7900120B34E9600491
:1029730079A48002790002537174F6120387EAFE88
:10298300EBFF8E828F83A3A3A3A3A3A3E054406092
:102993001B1257EE122AE360067AFF7BFF801A8E22
:1029A300828F83123F65FAA3E0FB8003120DE0746C
:1029B300FE6A700374FF6B60411257EE124D591299
:1029C3000E34E98E828F836006122A0EE48005128C
:1029D3002A0E7401F07CCC7D0C8E828F83125130D1
:1029E300121C6EE9F5087015EE4F60097901EEFAD5
:1029F300EFFB120D50A908024D8A7508CDAA088E67
:102A0300828F83122A15E960DF80EAE0240D1244E5
:102A13003422E0240C124434E0F9120CD82274F668
:102A2300120387E9FEEAFF7A0F7B001213B0EA4B29
:102A330060198A828B83740CF0EEA3A3F0EF8A8271
:102A43008B83A3F0124DB57900802FEEF9120D7A26
:102A53008A088B09A808A909E849601C8882898328
:102A6300A3A3A3A3A3A3A3A3A37406125A79E0F970
:102A7300120C90EEF9120D567910024D8AC082C0E5
:102A83008390036AE0640F7014EA4B60109003654F
:102A9300E064086005E064047003122AA3024303A0
:102AA300EAFCEBFD7A017B009003B0E0F912150616
:102AB30022C082C0837900EA241DF582EB123F62B3
:102AC30024FD600B14600824FD600424FD700109DB
:102AD3000243038E828F83A3A3A3A3A3A3A3A3A3CE
:102AE300122AE722123FAAFB120E34E9228E828FAA
:102AF30083A3A3A3A3A3A3A3A3A3122AE7640222EA
:102B03008E828F83A3A3A3A3A3A3A3A3A31242FA97
:102B1300900356E068221208B77F060205A174F4F9
:102B230012038774FD1209318A088B098A828B8309
:102B3300A3A3E0F9120D7A8A0A8B0BAE0AAF0BEE50
:102B43004F7003022C28850882850983A3E064F172
:102B53006030850882850983A3E064CD60248508FD
:102B630082850983A3E0641A601885088285098336
:102B7300A3E064E9600C850882850983A3E064E12E
:102B830070087900120D50E9706C850882850983FD
:102B9300A3E0C0E07402120B03D0E01242DEEEF0B9
:102BA300A3EF123609851882851983AA82AB837035
:102BB30005120BF48003120E1C7402120B03E06463
:102BC300E970338E828F83122C34750A01780A12CE
:102BD3000873750AE9780A120873E508240CF5826C
:102BE300E5091230FB1235E6FCA3E0FD8A828B83F4
:102BF3001236001208B78E828F83A3A3A3A3A3A3C5
:102C0300A3A3A3E0640270108E828F83A3A3A3A364
:102C1300A3A3A3A3A37406F0850882850983A3A3B2
:102C2300E0F9120D56120D44900D0B1228EC0231EF
:102C3300B8E0F8A3E0F9E8FAE9FB2274F412038799
:102C4300EAFEEBFF7508008E828F83A3A3A3A3A3E1
:102C5300E060427508088E828F83A3A3A3A3A3A376
:102C6300A3A312420D8B0BEA450B601075082C8E43
:102C7300828F83A3A3A3A3A3E0D2E0F08E828F83EA
:102C8300A3A3A3A3A3E0540364016003022D27437A
:102C93000811022D27EE24181231C56033EE241AD1
:102CA3001231C5700F122B037003A3E069707575A1
:102CB30008228070EE241BF582EF122D2C241AF5C6
:102CC30082EF123611EE2419125822120C7E805410
:102CD300122AF07003750801122B037003A3E06935
:102CE3007006E508D2E1F508E50860158E828F834A
:102CF300A3A3E07006E508D2E58004E508D2E6F573
:102D030008122AD664017006E508D2E0F5088E821F
:102D13008F83A3A3E0600D122D3A64016006E508DA
:102D2300C2E0F508A9080231BD123F50122D33222B
:102D3300E0FCA3E0FDEE22123F4A123F82F9120E9D
:102D430022E922C082C08379018A828B83A3A3E014
:102D5300C394024001198A828B83A3A3A3A3E0C374
:102D63009402400279008A828B83A3A3A3A3A3A323
:102D7300A3A3A3E064F87003A3E0F460458A828B05
:102D830083A3A3A3A3A3A3A3A3A3E064F97003A3AF
:102D9300E0F4602E8A828B83A3A3A3A3A3A3A3A39C
:102DA300A3E064FA7003A3E0F460178A828B83A321
:102DB300A3A3A3A3A3A3A3A3E064FB7003A3E0F4CF
:102DC300700279008A828B83A3A3A3E0F890035354
:102DD300E0686002790002430374F012038774DE33
:102DE300120931EAFEEBFF8E828F83A3A3A3A3E034
:102DF300600E900D09124D816006900D091228ECAA
:102E03007403120B03AC82AD838E828F83A3A3A3BF
:102E1300124E0312563CE9600F7403120B03AA828D
:102E2300AB83120CF6E970087901121C200230F012
:102E3300EE241B123F557410120B03124DCC740970
:102E4300120B03E06021741A120B03E0FD740412E9
:102E53000B03E0FC8E828F8312512E7901120B3407
:102E6300E96004790280C37403120B03AA82AB8363
:102E7300120CF0E9F50A7409120B03E0702A9003AF
:102E83004DE060247422550A6422601C7442550A82
:102E9300644270CF7420120B0312310E600A742047
:102EA300120B0312310770BBE9A2E65041740312FF
:102EB3000B03AA82AB83120CE4E97003022E2B747A
:102EC30020120B03123F656403700F7420120B036F
:102ED300A3124D73A3E0640D60147403120B03AAD1
:102EE30082AB83120E46E9640170030230F0EE24D4
:102EF3002C1230F812341C7003A3E069701C75089F
:102F03000078081208737808120873EE242E1258FA
:102F1300221231141236001208B77409120B03E09F
:102F23007003022FCD123114125130120E9A8A08F7
:102F33008B09EA4509700302306A7404120B03E03B
:102F4300F88E828F83A3A3E028F8A3E03400F9E886
:102F5300240D1230FF8A828B83A3A3A3E068601C35
:102F6300E88A828B83A3A3A3F0908822120AE085C8
:102F73000882850983A3A3A3A3120AEC7904E912A7
:102F83000B031256192AF8A3E034008882F583A3B1
:102F9300AA82AB8312139E8A0C8B0D8C0E8D0F8528
:102FA3000882850983A3A3A3A3780C12080B40030B
:102FB3000230F090882E780C1209C08508828509AA
:102FC30083A3A3A3A3780C120AC4900365E064044B
:102FD3006008E0640960030230F0E50AA2E54003FB
:102FE3000230A8EE242E1231C5851882851983F08C
:102FF300EE242F1231C5C0E07401120B03D0E0F0B0
:10300300EE24301231C5C0E07402120B03D0E0F09D
:103013007414120B03E064017027740E120B031275
:103023003F5BEE24121231C5687003A3E06970118F
:10303300740C120B03122AFD70077414120B03E4B1
:10304300F0EE24241230F81206A27404120B03AC1F
:1030530082AD837407120B03AA82AB83120BFA743B
:10306300041208B70230F09003AAE064016003027F
:103073002FCD7420120B0312310E7009E50AA2E65C
:103083005003022FCD7410120B03E0F47003A3E07E
:10309300F4605AEEFCEFFD7403120B03AA82AB83B8
:1030A300120D028048A2E650447420120B03125101
:1030B3003F701A741A120B03E06402703074031227
:1030C3000B03AA82AB837900120E108020742012A6
:1030D3000B031231077016741A120B03E0640470A9
:1030E3000C7403120B03AA82AB83120E0A7422021E
:1030F30054EBEE240BF582EF123F5022F582E912D6
:103103004DE5F822125800E0640722123F8264065C
:1031130022EE242A123F4D122D332412123F4D2248
:1031230074F4120387EAFEEBFF8C088D099005DA2D
:10313300E0600F122B037003A3E0697005120C6C9F
:10314300804F7900125123120C9C8A828B83E58273
:1031530045836035A3A3A3A3A3A3E05418602AE582
:1031630008241BF582E5091230FB1206A61237F973
:103173001230FB1206A6EE241812582212319612B0
:103183000CAE74041208B780087900123196120C41
:103193007280278E828F83A3A3A3A3A3A3A3A3A336
:1031A300122D33240BF582EF1231AF223400F58355
:1031B300123FAAFB2274031208B77F040205A1EE93
:1031C3002417F582EF124DE52274F712038774F783
:1031D300120931EAFEEBFF900365E06403600DE042
:1031E30064016008E0640960030232968E828F8373
:1031F300A3E0707E7C007D007A027B00121C1AEE35
:103203002402FAEF123B66123F5B900356124DCC39
:103213007953121C50790012329BE0640960031247
:10322300362E8518828519837401124DA290036589
:103233007404F07401120B03AA82AB83794A121C43
:103243004A7401120B03AC82AD837A5B7B03121CBD
:10325300389003561256327A03123638900350E0F0
:10326300A2E35004D2F08002C2F0124D8F1228E97B
:10327300801E8E828F83A3AE82AF83FC7D007A0390
:103283007B10121C1A8E828F83E0F912329BE4F0BA
:10329300120D2C74090253739003631231B3120C91
:1032A3000C90036522C082C083900334124D817059
:1032B3001F900365E014600924FC600A14600C800D
:1032C3000F90033C8032900338802D90033A80287E
:1032D300E84960089003351235E0700C8A828B83CD
:1032E300A3E0F9120C00801B90033512389570058A
:1032F300120E64800E9003D2124D816006124D733C
:10330300121E1102430374F412038774FB12093172
:103313008A088B097A0F7B001213B08A0A8B0BAED3
:103323000AAF0BEE4F70030234108E828F8312525A
:10333300FD7950121C4A850882850983A3E0600346
:103343000233F8900363E0F47003A3E0F460349075
:103353000363E064FE7003A3E0F4602785188285AD
:10336300198312341C7003A3E069601785088285F2
:103373000983A374EA1236167A637B037950121C0D
:103383005080728518828519831257E1124DCC7AC9
:10339300567B037953121C4A900356124DFD124D6E
:1033A300CC7A597B03794B121C4A7A587B0379E117
:1033B300121C4A90036AE0C3940F5021900358E013
:1033C300C0E07402120B03D0E0F07404120B037418
:1033D30001F004120B03AA82AB83121C62750A006C
:1033E300780A120873780A120873900D31E0F91203
:1033F30035F71208B7850882850983123415A3F0BF
:103403009003657403F0EEFAEFFB124DB5740502F9
:1034130031BAA3E08E828F83221257E5E06822122D
:10342300443B2274F512038774D81209318A088B3E
:10343300098A828B83A3A3A3123F877415120B03FC
:10344300AC82AD838A828B83A3A3A3A3A3A3A3A3E9
:103453001235E6FAA3E0FB120D327415120B03E0EA
:10346300706B850882850983A3A3A3A3A3A3A3A346
:10347300E0C3940B40578E828F83A3A3A3A3A3A37C
:10348300A3A3E064027046EE240B1231C5F4703D31
:10349300900365E06402603AE064066035900334AB
:1034A300124D8160051235E0604F900365E06408BA
:1034B3006005E0640470167417120B03E0F9741CC2
:1034C300120B03AC82AD83125123120D3874280200
:1034D3005CFF900334124D81701F75080078081249
:1034E30008737808120873EE24101230F812583A51
:1034F300123C4E1236001208B78E828F8312509FF1
:10350300123B78123F5B7402120B03124DCCEE2474
:103513000D1231C5C0E07404120B03D0E01236095A
:10352300F508A3E0F509740F7808120AB5740512BB
:103533000B03E508F07419120B03E0C0E0740612E4
:103543000B03D0E0F0741B120B03E0C0E07407120E
:103553000B03D0E0F07416120B03E0C0E074091201
:103563000B03D0E0F07417120B03E0C0E0740812F1
:103573000B03D0E0F0EE24101231C5C0E0740A1240
:103583000B03D0E0F0741A120B03E0C0E0740B12CB
:103593000B03D0E0F07427120B03E0C0E0740C12AD
:1035A3000B03D0E0F0741C120B03A982AA838908D1
:1035B3008A09750A00780812086B7C087D0074106C
:1035C300120B03AA82AB831249301208B785188203
:1035D300851983AA82AB83120C060234D012389B5E
:1035E300640122E0F98A828B83A3A3A3A3A3A3A3E9
:1035F300A3A3E0229003631256369003591231B30A
:10360300120DF2740222F0EE240B124DE222124D3F
:10361300E5FA22F07A567B03795312362122121CE3
:10362300507A597B03794B121C5022900363123159
:10363300B3120E94227B00121C1A900359125636B1
:103643007A047B00121C1A22F01258452274F212DB
:10365300038774F8120931EAFEEBFF8C0A8D0B899C
:103663000C851882851983AC82AD83758387758237
:10367300D674081207CBF50DEEFCEFFD8518828595
:103683001983AA82AB831250007003750D01900356
:10369300B1803BEEFCEFFDE508240BFAE5093400AD
:1036A300124FFF601E850882850983A3A3E0650C82
:1036B3007011850882850983E0650A7004A3E065BB
:1036C3000B6038E5082414F582E5091230FB123B40
:1036D30070E50845096024E50DA2E040B68508823F
:1036E300850983E0650A7004A3E0650B70D585083E
:1036F30082850983A3A3E0650C70C8AA08AB09748B
:1037030008022B19C082C0839003B102430074F7EF
:103713001203879003B1123FAA8012EA2414F582A0
:10372300EB1230FB123F87121452EEFAEFFBEA4B17
:1037330070E99003B1E4F0A3F00253767F0702052A
:10374300A174F1120387EAFEEBFF890A8C088D0945
:103753008E828F83E08C828D83124217AE82AF8379
:10376300E01249F0124961C41249F0123802E054E0
:10377300038C828D8312495FA2E2E4338C828D83B2
:1037830012495E131313541F1249F012495DA2E745
:10379300E4338C828D83A3A3A3A31238028E0C8FF0
:1037A3000D750E00780C12086B7C087D00E508246B
:1037B300071255A51208B71256108E0C8F0D780CF0
:1037C30012086B7C037D00E508240F1255A512082F
:1037D300B7E50AC3940F40148E828F83A3A3A3E09B
:1037E300C0E01237F91230FBD0E080061237F9122D
:1037F3005A6DF002373FE5082412F582E50922A34A
:10380300A312421B0EAF832274F412038774F912BE
:103813000931EAFEEBFF8908900334124D81600EF3
:103823001238957009EEFAEFFB120E5E805F90037B
:1038330063E06E7003A3E06F705374016508600961
:103843007A777B0312500070447A007B02123DBFEB
:103853008B0BEA450B7036900366120AE0851882DB
:10386300851983120AEC90036CE0C0E07404120B18
:1038730003D0E0F07405120B037401F07406120B0D
:10388300031252FD120BD0E9609B120BD674070290
:1038930031BA12389B640222125801A3A3A3A3A333
:1038A300A3E02274F51203878A088B098A828B832B
:1038B300A3AE82AF83E0F9120C248E828F83E0647F
:1038C300EB600C850882850983A3E064E1700985B8
:1038D3000882850983A3E4F01228E9750A01780AAE
:1038E300120873850882850983A3E0F50878081216
:1038F300087379001235F71208B7120D44025D02FE
:10390300EAF0A3EBF002430374F61203879003B4C7
:10391300E0701B7C0079017A007B00120D74EA4B86
:10392300600C8A828B83124D816003120CD2024D8C
:103933008AC082C083123DA7401079FF120D6EE941
:10394300F89026DFE493C39850047901800279004C
:1039530002430374F01203878A088B09890B750CE1
:10396300008A828B83A3A3A3A3A3A3A3A3E0F91237
:103973000D7A8A0E8B0FAE0EAF0F750A01EE4F60F4
:1039830003023A34850882850983A3A3A3A3A3A3CF
:10399300125632850882850983A3A3A3A3A3A3A3F5
:1039A300124730125130120D628A0C8B0DAE0CAFE0
:1039B3000DEE4F7003023B578E828F83A3A3A3A305
:1039C300E4F0A3F0E508240B123B63E0C0E01230FF
:1039D300F5D0E0F0120E3AEE240CF582EF124D55BD
:1039E300E508240EF582E509123F58EE240EF58210
:1039F300EF124DC9750C01EE2406F8EF123B5F542C
:103A03007FF0A3E054FC125897E054046003023A99
:103A1300BA900D0F12472174077808120A328E826A
:103A23008F83A3A3A3A3A3A3E04508F0A3E04509C1
:103A3300F08E828F83A3A3A3A3123B6E740778082F
:103A4300120AB5E5085407F508E50B607A8E828FF4
:103A530083A3A3A3A3A3A3A3A3A3740212496224CE
:103A63000D124430E0A2E2500B900351124DFDA31E
:103A7300A3124DCCE5087003023B2CEE2406F8EFAD
:103A83003400F9E8FAE9FB8A828B83E0547FFCA3D4
:103A9300E054FCFDE50824FFF508E434FFF5097460
:103AA300077808120A32EC4508F8ED4509F98A82CD
:103AB3008B83124DCC80728E828F83A3A3A3A3A387
:103AC300A3E04480023A33E5087005750A00805983
:103AD3008E828F83A3A3A3A3A3A3E0542060121217
:103AE30013AAEA547F245F8E828F83A3A3A3A380A8
:103AF300238E828F83A3A3A3A3A3A3E05410600AFE
:103B03001213AAEA540F240A80DD8E828F83A3A3A3
:103B1300A3A37401F0A3E4123B787404123DB68BA3
:103B230009EA45097003124D48E50CA2E050288EBE
:103B3300828F83A3A3A3A3125363F9EEFAEFFB12BD
:103B43000D68E96012124D776003123F40EEFAEF01
:103B5300FB121452750A00A90A0254EE124EC02237
:103B6300FAE5093400FB8A828B8322A3A3E0F508DC
:103B7300A3E0F50922123B7C221255C1A3A3A3A300
:103B8300A32274F412038774F71209317E00120D15
:103B93007AEA4B7003023C478A828B83A3A3A3A3D5
:103BA300A3A3A3A3A3E064066003023C478A828B1A
:103BB30083A3A3A3A3A3A3A3E0FF8A828B831244BB
:103BC30043E0C0E07408120B03D0E0123F7B1250B5
:103BD30006124DCC120D8CEF540860668518828551
:103BE30019831256327A007B00120D5C8B0BEA4567
:103BF3000B704F90036312406B121C7A7C007D00A4
:103C03007A007B0080288E828F83123F65F47003D5
:103C1300A3E0F4602D900363123C4E12513012194D
:103C23006EE9641A601C7C007D00EEFAEFFB120D56
:103C33005C8A0A8B0BAE0AAF0BEE4F70C979001288
:103C43001C807E01EEF974090231BA123C5222E063
:103C5300FCA3E0FD8E828F8322C082C083EA4B7077
:103C6300059003B580068A828B83A3A3123E6B6003
:103C7300258A828B83A3A3A3A3A3A3A3E0540860F1
:103C8300E5EC4D60158A828B83123F656C7003A34C
:103C9300E06D70D280047A007B0002430374F21259
:103CA3000387EAFEEBFF890A8C088D097A107B00F3
:103CB30012144CEA4B603F8A828B83A3A3A3A3A372
:103CC300A3A3A3A3E4123F69A3E50A125807A3120F
:103CD3003D038A828B83A3A3A3A3E4F0A3123F75BE
:103CE300A3F012569BEA240CF582EB124207123C16
:103CF300FCA3A3F0A3F0022B1CA3F08A828B8322E4
:103D0300A3A3E508F0A3E509F02274F4120387EAFC
:103D1300FEEBFF89088C0A8D0BEE4F60557401652D
:103D23000870147901120D6EE9F89026D7E493C355
:103D330098500F7911806A74046508702F123DA79B
:103D430040F18E828F83A3A3A3A3A3A3A3A3A3E57D
:103D530008124217A3125D8C8E828F83A3A3E4F013
:103D6300A3F09003B5124D816021800D74026508A4
:103D730060D079C1802BE0F8A3124DF6A3A3123EC5
:103D83006B88828983A3A370ED80039003B5EEF063
:103D9300A3EF123DB68B0BEA450B7003124D487926
:103DA300000231BD7904120D6EE9F89026D2E49336
:103DB300C39822F0123DBB227A207B009003B0E02F
:103DC300F912151822C082C083E9F879009003B56F
:103DD300801D8A828B83A3A3A3A3A3A3A3A3A3E08E
:103DE30068600574FF687001098A828B83A3A3123C
:103DF3003E6B70DE02430374F7120387EA4B7005D0
:103E03009003B580068A828B83A3A3123E6B602442
:103E13008A828B83A3A3A3A3A3A3A3A3A3E0697011
:103E2300E4EC60148A828B83E0240D125623A2E211
:103E330040D380047A007B00025376C082C0839013
:103E430003B580068A828B83A3A3123E6B60128A1A
:103E5300828B83A3A3A3A3A3A3A3A3E06970E58099
:103E6300047A007B000243031231B3EA4B2274F25B
:103E73001203878A0A8B0B8C0C8D0D75080075094C
:103E830000EA450B602E9003B580068E828F83A3D4
:103E9300A3123EBE601EAC0CAD0DEEFAEFFB850A1D
:103EA30082850B83121E11E9640170DFEEF8EFF9CE
:103EB30088088909AA08AB09022B1CE0FEA3E0FFCE
:103EC300EE4F2274F71203879003B5123F5B7C0019
:103ED3007D00800DE8FCE9FD88828983A3A3123F5E
:103EE3005BE8496030EA687002EB6970E79003B5FC
:103EF300125130E86A7002E96B88828983A3A37048
:103F030008123F5B9003B58009123F5B8C828D835F
:103F1300A3A3124DCC02537674F7120387EAFEEB88
:103F2300FFEE4F6015120D86123F8D124D77600321
:103F3300123F40EEFAEFFB121452025376EE240CBA
:103F4300123F4D123FA222EE241DF582EF3400F5FD
:103F53008322F582EF123F501242FA22F582EF12CA
:103F63003F50123F8222123F6D2212580FA3A3A388
:103F7300A322123F6DA3A322123CFD123F82221201
:103F830057FAE022E0FEA3E0FF228E828F83E02433
:103F93001C124434123FA28E828F83123FA222123C
:103FA3003FAAFB12145222E0FAA3E022C082C0838C
:103FB300EAFCEBFDEC4D700479058044EC24FBF541
:103FC30082ED34FF124D7F7007124006E0F4600566
:103FD3001213B680E39003B0E0C0E0124006D0E0D5
:103FE300F09026D4E493F97AB77B031213E0E964E3
:103FF30001700B7A007B20124D4C7900800279040A
:10400300024303EC24FFF582ED34FFF5832274F4BD
:10401300120387A2AFE433F508C2AF9003B7123E91
:10402300BE6038EE24FBF582EF34FF124D7F7A0039
:104033007B209003B06005124D4F8005E0F9121309
:10404300ECE4F50AF50B780A12086FEEFCEFFD7A43
:10405300B77B03121E0674021208B7E508A2E092AA
:10406300AFEEFAEFFB0231BD125636851882851981
:1040730083AA82AB832274F212038774FC12093180
:10408300EAFEEBFF750AFE750BFF120D4AE96005A8
:1040930079110241FCEE24151231C56037900D23CE
:1040A300E0C43354E0F8E0333354FC48C0E0EE247A
:1040B300151230F8D0E012421712420D8B09EA456F
:1040C300096011750AFFEE240F1231C54404124D25
:1040D300DAD2E0F08E828F83122AE16006EE241298
:1040E300124204EE24131231C570109026DAE493C1
:1040F300C0E0EE24131230F8D0E0F08E828F83E01C
:10410300A2E750045403801CEE24141231C5701529
:10411300900342E0C0E0EE24141230F8D0E0F090B7
:104123000342E004F0EE24111231C56401701690CD
:1041330005D1E0600D90034DE0700A8E828F83E01D
:1041430070031242018E828F83E064017013EE24A8
:104153000B123F5F64027009EE240F1231C5444015
:10416300F0851882851983AC82AD83EEFAEFFB12DA
:104173000DB08A088B0974FE650A700374FFF4702E
:10418300098E828F83A3A31255B1EA450960668E17
:10419300828F83E0C0E07401120B03D0E0F074025D
:1041A300120B0312569F7401120B0385820C858335
:1041B3000D780C12086FEE240F1230F81206A6EEDB
:1041C300240E1231C5F50C780C12087390035612A5
:1041D30006A67407120B03E0F9AC0AAD0B120DAA85
:1041E30074071208B7E9FE74106E700BAA08AB09C6
:1041F30012145280027E10EEF97404022B19EE247D
:1042030011F582EF123F50E4F022A31231B379FF8C
:10421300121D402212421B22F08E828F83A322C0E2
:1042230082C08374DE1209318A828B83A3A3A3A382
:10423300123F5B740E120B03E8F0A3E91242F17410
:104243000C120B031242EA240DF582EB1231C8C0A3
:10425300E0741A120B03D0E0F01254FEEB123F5835
:104263007420120B031242EA2415F582EB1231C8B3
:10427300C0E07408120B03D0E0F0EA241CF582EBD3
:10428300123F587412120B031242EA2411F582EB07
:104293001231C8C0E07409120B03D0E01242DE747D
:1042A300FFF07401120B0374FFF07402120B03741A
:1042B300FFF09088221206A27404120B03AC82ADA5
:1042C300837407120B03AA82AB83120BFA740412D2
:1042D30008B7790074221208B780251242E222F04F
:1042E30085188285198322E8F0A3E9F0EA22123CBB
:1042F300FDA31242F922A3E0F8A3E0F92212513000
:10430300D083D08202084F74EC12038774EE120933
:10431300318A128B13ECFEEDFF89097426120B030D
:104323001255B17428120B03E0F5107429120B0314
:10433300124425742B120B03E0F50EA3E0F50F7561
:1043430008107A1E7B0012144C7402120B03124DD8
:10435300597402120B03124D81700302441E851817
:1043630082851983AA82AB837950124C341251305F
:104373007402120B03124443A3124D597410120B0F
:1043830003125D8E7402120B03E0240B124430748B
:1043930002F0120B031244437402F0120B03125780
:1043A300F212569F7402120B03125145E509F07481
:1043B30002120B03E0240C124430E510F0740212D5
:1043C3000B0312442DE512F0A3E513F07408120B4E
:1043D30003E50CF0A3E50DF0740A120B03E510F0EE
:1043E300850E82850F83C082C083740D120B03ACCC
:1043F30082AD83D083D08274031207CBF974021287
:104403000B03AA82AB83120D50E964017005750892
:104413000080087402120B03123F46A908741202AB
:1044230055C8E0F50CA3E0F50D22E0241C1244343A
:1044330022F8A3E012443B223400F98882898322C4
:10444300125138A3A3A3A3A32274EE120387EAFE97
:10445300EBFF8C088D098E828F83A37408124E158F
:10446300E060088E828F83A37410F01231C260095A
:104473008E828F83A3E02408F0EE24151231C560E9
:10448300088E828F83A3E004F08E828F83A3A3A37D
:10449300A3A3A3E060198E828F83A3A3A3A3A3A3E3
:1044A300A3E0C3332402F88E828F83A3E028F0EEC7
:1044B30024111231C56005750B0E8003750B008E38
:1044C300828F83A3C082C083EE240D1231C5D083B3
:1044D300D082F8E028250B8C828D83F0EE24111214
:1044E30031C5600512494028F0850882850983E0BB
:1044F300C39475400975080075090002462EE0FA59
:104503007B0012574D700302462EEEFAEFFB120D9D
:10451300B6EA850882850983124D5AEE2402F8EF24
:1045230012342212472812466AF0EE24040808EFD8
:10453300123422124B6AA312466AA3A3F0EE241389
:10454300124650F0EE2414124650A3F0750A08EEFA
:1045530024161231C56010EE241812562FE50824D4
:1045630008125830750A101231C26016EE241A125E
:10457300562F850A0CE508250C1258307408250AB5
:10458300F50A8E828F83A3A3A3A3A3A3E06059EEAE
:104593002407F510EF3400F511851082F583E0C090
:1045A300E01246371230FBD0E012465AE0C0E01268
:1045B30046371230FBD0E012465AA3124643120884
:1045C3006B851082851183E0C333FCE433FD850AD8
:1045D3000CE508250C1255A51208B7851082851124
:1045E30083E0C333250AF50AEE24151231C5600BA7
:1045F300C0E01246371230FBD0E0F01230F512461D
:104603004312086BEE240D1231C5FC7D00850B0AA5
:104613008E828F83A3E0F8E50828F8E5093400F9D2
:10462300E8250AFAE91255A81208B7AA08AB097FC8
:104633000A0205A1850A0CE508250CF582E5092285
:10464300E0F50CA3E0F50D750E00780C22123F4D3A
:10465300124674A3A3A322F0050A8E828F83A3A319
:10466300A3A3A3A3A3A322A3A312589BA312467499
:1046730022124B6EA3A32274F61203878A828B83C2
:10468300E0FC90035312472174027808120A32ECBB
:104693004508FCAD09EA241212471B740678081278
:1046A3000A32EC4508FCED4509FDEA2415F582EBD9
:1046B3001231C86004780180027800E4C8F9ED493A
:1046C300FDEA2411F582EB1231C8F5088809740953
:1046D3007808120A32ED4509FDEA241612471B74C5
:1046E3000B7808120A32ED4509FDEA241712471B1D
:1046F300740C7808120A32ED4509FD8A828B83A374
:10470300A3A3A3A3A3124721740A7808120A32ECC5
:10471300FAED4509FB024D8AF582EB123F50E0F5B5
:104723000875090022E085088285098322A3E0F940
:104733008508828509832274EE1203878A0A8B0B0C
:10474300ECFEEDFF750F01E9C394085005790002F3
:10475300492D8E828F83E9F0124B93E96003750F25
:1047630000124B778E828F83124BC1EE1254FFEFF0
:10477300124BB6C0E0EE24111230F8D0E0124BAE6B
:10478300C0E0EE24121230F8D0E01242177408127F
:1047930055B9A3A3A3E06015124B5FEE2413F58272
:1047A300EF124DC98E828F83A3E02408F08E828F8F
:1047B30083A3A3A3A3A3A3A3A3E060218E828F83D8
:1047C300A3858208858309124BA2EE2415F582EF97
:1047D300124DC9850882850983E02408F08E828FF3
:1047E30083A3A3A3A3A3E0601A8E828F83A38582EE
:1047F30008858309124B868E828F83A3A3A3A3A369
:10480300124952EE2419124204EE241B124204A34D
:10481300124E0DE070030248C1EE2419F8EF340084
:10482300F98E828F83A3858208858309E0FAE50ADE
:104833002AF582E50B1231C888828983124952FA1C
:10484300E50A2AF582E50B1231C8C0E0EE241A12FC
:1048530030F8D0E012495288828983E06059F89099
:1048630026D3E493C398500575110C8008EE2419E0
:104873001231C5F5118E828F83A3E0F8E50A28F57E
:104883000CE50B12493612086BE511C333FCE43314
:10489300FD7AB27B0B1249301208B7EE241B12309B
:1048A300F874B2F0A3740BF0E511C333F8850882F2
:1048B300850983E0288006EE2418125A6AF08E8256
:1048C3008F83A3E0F88E828F83E0C398500302475F
:1048D30050A3E0FA8A08E50A2508F8E50B3400F945
:1048E300EE241DF582EF124ED5124962C39AC0E041
:1048F300EE24171230F8D0E0124DD2602BEE2417BD
:10490300F8EF3400F9880889098882F583E024F2F6
:10491300124EB6240EFAA3E03400FB888289831278
:104923004D59124940C398F0A90F0246321213861B
:104933007403223400F50D750E00780C2290034E9B
:10494300E0F9120B3AE9F8850882850983E022F041
:10495300850882850983E004F022A3A3A3A3A3F01F
:104963008E828F83E02274F41203878A088B09EA0C
:104973001249F7F0EA1313543F1249F0A3A3A3F02B
:10498300EAC413131249F7A3A3F0EB1249E9124A3D
:10499300017409780A120AB51249E7124A00740A27
:1049A300780A120AB5E50A5401C0E0EC2418F5822E
:1049B300ED1230FBD0E0124A06740B780A120AB5E6
:1049C3001249E7A3124A00740C780A120AB5124975
:1049D300E7A3A3A3A3A3A3A3A3F0740D7808120AC8
:1049E300B5022D27E50A54018C828D8322540F8C46
:1049F300828D832254038C828D83A3A322A3A3A33A
:104A0300A3A3A3F08A0A8B0B22C082C08379008AF6
:104A1300828B83A3A3A3A3A3A3E090034D600FE022
:104A230070228A828B83A3A3E07019098016E06049
:104A3300138A828B83125127900356E06A7003A373
:104A4300E06B70E702430374F01203878A0A8B0B4F
:104A5300890C8C088D09124B93124B77850882853C
:104A63000983124BC1E5081254FFE509124BB6C086
:104A7300E0E5082411F582E5091230FBD0E0124B82
:104A8300AEC0E01237F91230FBD0E0124EDD7408ED
:104A9300124EF66011124B5FE5082413124ED11229
:104AA3004EDDE02408F0850882850983A3A3A3A330
:104AB300A3A3A3A3E06017850882850983A3124BF0
:104AC3009EE5082415124ED11249622408F0850888
:104AD30082850983A3A3A3A3A3E060198508828524
:104AE3000983A3AE82AF83124B868508828509832F
:104AF30012495D04F0AA08AB09120DC8E9F50D705F
:104B030056850882850983A3A3A3A3A3A3124B6A93
:104B13007014E0FA8A0EE50A250EF8E50B124DBE75
:104B2300E50CC39A8021124B9EE8240EF8E9124D3E
:104B3300BE90034EE0F9120B3A8E828F83E0F8E5C4
:104B43000CC39824F2C399C0E0E5082417F582E565
:104B5300091230FBD0E0F0A90D0254EEE50A240857
:104B6300F8E50B3400F922124B6E22E085088285AA
:104B73000983A322850A82850B83A3A3124BD7E063
:104B8300F9EA22E0F8E50A28F582E50B124DE52261
:104B93008A828B831254F3120DC222AE82AF83E05A
:104BA300F8E50A28F8E50B3400F922124BEAA3A32F
:104BB300A3E022123F50E8124BE3A3A3E022A3A3F6
:104BC300A3A3A3A3A3A3A3124BE3124BD7A3A3E0D3
:104BD300F9EAF822E0FA850A82850B83A3A3A322CC
:104BE300F0A3E9124BEA22F0850A82850B83A3A383
:104BF300A3A322C082C0837AC57B0379E2121C4A35
:104C03007AC57B03024303C082C0839003560243E9
:104C130000C082C08374FE1209318518828519830E
:104C2300AA82AB83794B124C341251307402024284
:104C3300D9121C4A85188285198322C082C08379C0
:104C43004A121C4A02430374F61203879003CDE011
:104C5300FE04F0EEF9120D7A8B09EA450970EDEEC8
:104C630060EAF9024D8A74F0120387EAFEEBFF8CC7
:104C7300088D09890A7410120B03E0F50B741112E5
:104C83000B03E0F50C120E9AEA4B7013E50C70421D
:104C9300A90AAC08AD09EEFAEFFB120EB2806EE57D
:104CA3000A6021EA2402F582EB1231C8850A08253D
:104CB30008F8E4340013E813F070098A828B83A3A5
:104CC300A37401F0E50C6045E50B70068A828B83C3
:104CD300E4F07401650C7035E50B9003D47004E4C3
:104CE300F0802AE004F0900D10E0F89003D4E0C3C4
:104CF30098401AE4F0900359E06E7003A3E06F70DC
:104D03000CEEFAEFFB7901120C1E124D130254EE56
:104D13007A017B009003B0E0F912151222C082C021
:104D23008374016A7001EB70077A01124D4A801295
:104D3300900D07124D59EA4B6005122AA380031206
:104D43004D130243037A207B009003B0E0F9121362
:104D5300E6223400F583EAF0A3EBF022C082C0839D
:104D6300900D09023903C082C083900D0B023903F1
:104D730012580122EE240CF582EF3400F58312421F
:104D8300FAE849221208B77F020205A1A2F0E43330
:104D9300851882851983124DAB7952121C50221249
:104DA3004DAB7942121C5022F0AA82AB8322AA088F
:104DB300AB099003B0E0F91213BC223400F9E50803
:104DC300241DF582E509123F50E8F0A3E9F0221211
:104DD30055BDA3A3E022A3F0EE2415124DE222F564
:104DE30082EF3400F583E022124DEF223400F58385
:104DF300E0F8A3E0F98882898322E0F8124E0322C7
:104E0300A3E0F98E828F83A3A322F0EE2418123F2E
:104E13004D22F0EE2416123F4D2274F4120387EA5A
:104E2300FEEBFF7A007B04124D17124EAC124DCCF1
:104E33009003657409F0120DD48A088B09AC08AD90
:104E430009EE24131230F81251301250006401702D
:104E5300487A0F124E9F60418A828B837402124EEE
:104E6300B6FAA3E0FB8A828B83A3E0FC8A828B835E
:104E7300A3A3E0FBEC850882850983A3A3124D5A03
:104E830088828983125134124728124DD9FAA3E03C
:104E9300FB794A121C50124DB10231BD7B00121333
:104EA300B08A088B09EA4509229003361242FA9028
:104EB3000D0B22F0EE241DF8EF124EC02212443BDC
:104EC300E022124EC9223400F5837401F022F582E8
:104ED300E509123F50E8F0A3E922124EE122124EF7
:104EE300E522F0850882850983A322124EE5A3A358
:104EF300A3A322124EEEA3A3E022125307120E28FD
:104F030022EE2417F582EF124EC9120DD4EE241AA5
:104F1300123F4DEAF0A3EBF02274F412038774F30B
:104F23001209318908EAFEEBFF7C0D7D00790085CB
:104F33001882851983AA82AB83121392EE241D1261
:104F430030F81257F2A3E0F8741F58600A7901127F
:104F53001C207900024FF7E8A2E55008740C120BED
:104F6300037401F0E8A2E75008740B120B037401F9
:104F7300F0E8A2E6740A5008120B037401F08008EB
:104F8300120B03E064017005EE24138003EE241575
:104F930012562F7402120B03AA82AB83121C38120F
:104FA30030F5125005124DCC740A120B03E0640164
:104FB3007033122AD6703B120DE08A0A8B0BA80AB3
:104FC300A90BEE240B1231C5687003A3E0697022AC
:104FD300120DD4EAFCEBFD7402120B03AA82AB831D
:104FE300125000600D851882851983AA82AB831243
:104FF3000C18A908740D0231BAEEFAEFFB121C3239
:10500300E922E012500A22F8A3E0F98518828519F3
:10501300832274F612038774F31209318A088B0909
:10502300ECFEEDFF7C0D7D007900851882851983E8
:10503300AA82AB83125997A3A3A3A3A3A3A3A3A356
:1050430012509F1250A8F8A2E55008740B120B03DC
:105053007401F0E8A2E75008740A120B037401F01C
:10506300E8A2E6EE500424138002241512562F748E
:1050730002120B03125091A3A3E0C0E0740C120BB5
:1050830003D0E01252FF120C12740D024D87AA8254
:10509300AB83121C3885088285098322E012500AEB
:1050A300E8F0A3E922F0123F4A1257F6A3E0227474
:1050B300F712038774E1120931EAFEEBFF8E828F48
:1050C30083125134A3A3A3E0A2E050518E828F83B5
:1050D300122C368A828B83A3A3A3A3A3A3E054FE3B
:1050E30012514C8A828B83125145E0F98A828B8359
:1050F300E0241CFAA3E0123B66125130120DCEE9F4
:10510300701B741D120B0312513F70118518828599
:105113001983AC82AD83EEFAEFFB120E16025371C4
:105123008E828F83A3A3A3A3A3A3A3A3A31231B3A9
:1051330022125138221257FAA3A3A322123F8264E8
:105143000422E0241B124434221242E2AC82AD83D7
:1051530022E9F87900740468600A740A68600574C7
:10516300036870010902084F74F61203878A828B61
:10517300837420F0A3A37401F0120BC48A088B0973
:10518300AE08AF09EE4F60108E828F837401F090EA
:1051930003A3E07003124F04EEFAEFFB024D8AC043
:1051A30082C0839003B97401F0E9A2E3500374034E
:1051B300F0E9A2E15004E0D2E2F002430374F612F4
:1051C300038779007C008A088B0978081205E7F8C1
:1051D300FF07F351F151F151F151F151EA51EE5100
:1051E300F351E7510C80097C0480050C80F67C08A0
:1051F3009003B9E05C6003098003EC600109024D90
:105203008A74F61203878A828B83E07012A3124D8D
:1052130081600C8A828B8312512F121D7080047A55
:10522300007B00024D8A74F512038774F31209316F
:105233008A088B09ECFEEDFF750A12EA4509700531
:1052430079000252F8900356E065087004A3E06504
:10525300097014120DD4EAFCEBFD124FFC700575B6
:105263000A018003750A00851882851983E4F00416
:10527300120B03E508F0A3E5091252FF120B88E9AC
:1052830060277403120B03AA82AB83120B6AE964CF
:10529300017016750A017403120B03AC82AD8312FD
:1052A3004FFC6021750A00801C7412650A70169009
:1052B30003A2E06402700EEEFCEFFDAA08AB091234
:1052C3000BA0E970DFEEFCEFFDAA08AB09120EA0FC
:1052D300E9F8740A687005750A01801774A068708C
:1052E30012EEFCEFFDAA08AB09120EACAA08AB093B
:1052F300120EBEA90A740D025CFF7402125303223C
:10530300125307221242E2AA82AB832274F71203DA
:1053130087EAFEEBFF8E828F83A3A3A3A3A3A3A39A
:10532300A3E06015EE24151230F81231A3120E40DB
:10533300E964017004790180258E828F83A3A3A37E
:10534300A3A3A3A3E06015EE24131230F812536352
:10535300FAA3E0FB120E40E9640160D979008013DF
:10536300123C52A3A3A3A3A3A3A3A3A3E022741F4A
:105373001208B77F010205A174F012038774FD12AE
:1053830009318A088B09ECFEEDFF890B7413120BAC
:1053930003E0F50C750A017401120B03740412582F
:1053A3002A6048E50C601DEA2417F582EB125A6D5A
:1053B3001258188A828B83E0D2E7F0EA2414F5822C
:1053C300EB1242071254FEEB124DEB7403125D9085
:1053D300EE88828983A3A3F0EF88828983A3A31233
:1053E3003CFC123D03120BBEE9F50AA90A74030241
:1053F30054EB74EC12038774F51209318A0A8B0B90
:10540300890C8C0E8D0F741F120B03E0F50D7420A5
:10541300120B03E0F510A3E0F5117E01EE120B036E
:10542300740AF0E97007E50DC333240AF01255D06E
:1054330070030254D21255E57409F0A3E50CC4338A
:1054430054E0450D1255F7E50C702D7C008023ECDC
:10545300C333F8E433F9E51028F8E51139F9888204
:1054630089831254DF88828983123415F0A30EAF27
:10547300830CECC3950D40D7E5082417F582E509A5
:10548300124EC5120DD4E508241AF582E509124D12
:10549300557403120B03AC82AD83AA0AAB0B120B38
:1054A30070E96019E5082416F582E5091254D9124A
:1054B3000B03A882A983E5082418124DC585088229
:1054C300850983125D8CAA08AB09120BBEE9FEEEB7
:1054D300F9740B0255C8124EC9740322E08E828FF1
:1054E30083F0A3AE82AF83221208B77F080205A11F
:1054F300123FAAF9EA2400E439FB22EA240BF582DD
:105503002274EE1203878A0C8B0D890E8C088D0989
:105513007412120B03E0F50F7413120B031255B13F
:10552300900540124D816077E50FC333F8E433F9FA
:10553300E8240EFAE93400FB1213B08A108B11AE83
:1055430010AF11EE4F60588E828F8374D4F0A3A3F3
:10555300E50CF0A3E50D1255B9E50EF0AC08AD0965
:10556300EE2405FAEF125833EE240D1230F8E50F4E
:10557300F0850A08850B09750A00780812086BE59F
:105583000FC333FCE433FDEE240EFAEF1255A812D9
:1055930008B7EEFAEFFB9005401257F2121E110204
:1055A3004632FAE5093400FB121386740322E0F550
:1055B3000AA3E0F50B221255BD221255C122124255
:1055C3001BA3A3A3221208B77F0C0205A18518828F
:1055D300851983AA82AB83120E288A088B09EA45B0
:1055E3000922EA240BF582EB124DE5FEA3E0FF8EC0
:1055F300828F8322F0A3AE82AF83AC0EAD0FEEFA9F
:10560300EFFB12560922121C3812561022EE240800
:10561300FEEF3400FF22E0FA8E828F83A3A3E02201
:10562300FEA3E03400FF8E828F83E022123F4D12EF
:10563300563622E0FCA3E0FD221231B3120DBC2248
:1056430074F6120387EAFEEBFF9003BA8013888295
:105653008983E06E7003A3E06F603A88828983A335
:10566300A3124D8170E87A047B0012144C8A088BD4
:1056730009A808A909E849601C8882898312569FF2
:105683009003BA12513088828983A3A3124D599093
:1056930003BA124DCC024D8A8A828B83EEF0A3EFBC
:1056A300F02274F41203877E009003BA80070E88F9
:1056B300828983A3A3124D8170F4EEC333FAE433DA
:1056C300FB12574D607E7F009003BA802488828945
:1056D30083125632EFC333FAE433FBE5082AF5822B
:1056E300E5093BF583ECF0A3EDF00F88828983A3F2
:1056F300A3124D8170D79003AB122B107003A3E05C
:10570300697808701912086FEEF50A780A1208739F
:105713007C777D0379009003AB125758801A1208E7
:105723006FEEF50A780A1208737C777D037900908F
:1057330003AB125130120E5274031208B7AA08AB0E
:1057430009121452120BD60231BD12144C8A088B63
:1057530009EA4509221231B3120E5822C082C083CE
:1057630080128A828B83A3A3123F5B9003BA124DEC
:10577300CC1214529003BA123E6B70E602430374C8
:10578300F6120387900363123F879003CE1257E10B
:10579300124DCC7ACE7B037950121C509003CE125B
:1057A3002D2FFAEFFB120EB89003CE123F87900510
:1057B30042124D8160257A067B001213B0EA4B60DA
:1057C3001A8A828B8374D5F0A3A3E41258070412B8
:1057D30058189005421257F2121E11024D8A1257A1
:1057E300E522E0F8A3E0F9900363228E828F83120F
:1057F30057F6221257FA22E0F812580022A3E0F5D6
:105803008388822212580B2212580F22F08A828B2D
:1058130083A3A3A32212580BA3EEF0A3EFF022F568
:1058230082EF124DE5F922124EFDEA4B22FAE50909
:105833003400FB121C3822124E04A3A3A3A3A3A378
:10584300A3229026D5E4932401F8E43400F97A02E4
:105853007B002274F71203877E008004125E430EDE
:1058630012596740F77E00EE12588274FEF0A304CB
:10587300125897E4F00EEEC3940340EB025376758F
:10588300F003A4F8A9F074BC28F8740339F98882EA
:105893008983A32212589B22F0888289832274F77A
:1058A3001203877F0080010F9026DDE493F8EFC396
:1058B300985026EF125A536A7003A3E06B70E812F4
:1058C3005DF06C7003A3E06D600A74FF6C70037489
:1058D300FF6D70D312595E80047A007B0002537609
:1058E30074F61203877CFF7DFF7AFE7BFF120E7C2A
:1058F300EA4B70407508008036E50875F017A4F888
:10590300A9F0744D28F582740A125A65600C744C20
:1059130028F582740A125A657013743E28FE740ABD
:1059230039FF8E828F83125A72EEFAEFFB0508124B
:1059330059CD40C5024D8A74F41203878A088B0936
:10594300ECFEEDFF800B120E8EEEFCEFFDAA08AB12
:1059530009120E7CEA4B70EE0231BD743E28FA74D4
:105963000A39FB229026DDE493F8EEC3982274F7FC
:10597300120387EAFEEBFFEE4F601012599174FE9B
:10598300F0A304125D9614F0A304F00253767C177F
:105993007D0079001213928E828F832274F7120393
:1059A30087EAFEEBFF7508008018E50875F017A479
:1059B300F8A9F0125DFB7003A3E06F6003125E4B66
:1059C30005081259CD40E30253769026DDE493F89F
:1059D300E508C3982274F6120387120E7C8A088B9B
:1059E30009A808A909E849600AE8240DFAE934007E
:1059F300FB80047A007B00024D8A74F41203878AC9
:105A03000A8B0BECFEEDFF750800750900802EE58F
:105A13000975F017A4F8A9F0125E36601EE50912A5
:105A23005A53650A7004A3E0650B700375080AEE08
:105A3300FCEFFD125CF260034308A005099026DD2C
:105A4300E493F8E509C3985004E50860C2022D27E2
:105A530075F017A4F8A9F0125A5E22743E28F58255
:105A6300740A39F583E022F582EF123F50E42212E3
:105A730031B3120CB42212589BA3A3A3A3A3A3A3D1
:105A8300A32274F21203878A088B09ECFEEDFF74DC
:105A93000E120B031255B1750C007C007D018010B2
:105AA3001213AAE50CF5F0EA84ACF0750C007D0046
:105AB300780079008003125C2F125C8B4003025B39
:105AC30051E8FAE9FBEA75F017A4FA85F00D75F0D1
:105AD30017EBA4250D125C677003A3E0F460D712E3
:105AE3005C4565087004A3E0650960CA125C456EF5
:105AF3007003A3E06F60BF125C45650A7004A3E006
:105B0300650B60B2E8FAE9FBEA75F017A4FA75F0E1
:105B130017EBA4250DFB744C2AF582740A125C263C
:105B2300509474016D050C608DE50CC39C4087E8AF
