:020000040800F2
:1000000008190020290D0008010300080303000857
:10001000070300080B0300080F030008000000009E
:1000200000000000000000000000000013030008B2
:10003000150300080000000017030008190300085A
:10004000430D0008430D0008430D0008430D000850
:10005000430D0008430D0008430D0008430D000840
:10006000430D0008430D0008430D0008430D000830
:10007000430D0008430D0008430D0008430D000820
:10008000430D0008430D0008430D0008430D000810
:10009000430D0008430D0008430D0008430D000800
:1000A000430D0008430D0008430D0008430D0008F0
:1000B000430D0008430D0008430D0008430D0008E0
:1000C000430D0008430D0008430D0008430D0008D0
:1000D000430D000899090008F30A00084F0C0008B6
:1000E000430D0008430D0008430D0008430D0008B0
:1000F000430D0008430D0008430D0008430D0008A0
:10010000430D0008430D0008430D0008430D00088F
:10011000430D0008430D0008430D0008430D00087F
:10012000430D0008430D0008430D0008430D00086F
:10013000DFF80CD001F028FC0048004775010008EA
:100140000819002010B500F043FA10BD10B500F0FA
:1001500055FB4FF4A06000F0F9FD4FF4E13000F0E2
:10016000CFFB4FF4E13000F06BFC4FF4E13000F0D6
:1001700014FD10BD0024FFF7E9FFFFF7E3FF47A0E0
:1001800001F040FC1AE00A2000F075FB474948489E
:1001900000F0E4FC4548008805280ADD45A14448F4
:1001A00001F0D8FB28B141480188414801F0C7FB64
:1001B00005E03E4801883E4801F0C1FBE3E700BF8F
:1001C0001AE00A2000F057FB3849394800F0C6FC15
:1001D0003648008805280ADD36A1354801F0BAFB0B
:1001E00028B132480188324801F0A9FB05E02F48C8
:1001F00001882F4801F0A3FBE3E700BF2B492C48FF
:1002000000F0ACFC29480188294801F098FB2BA09C
:1002100001F0F8FB41E02549254800F09FFC234808
:10022000008806281ADB224927A001F0EBFB2BA14E
:100230001F4801F08FFB04460A2000F01CFB44B16C
:10024000641C204601F098FB85B22946204600F048
:1002500019FD4FF48061164801F071FB20492148D7
:1002600000F029FD1E480088062813DB1D491EA04A
:1002700001F0C8FB0A2000F0FEFA00F007FA642043
:1002800000F0F9FA174800F00AFA4FF480611548B7
:1002900001F055FB052000F0EEFABCE777616974C8
:1002A00020636F6E6E6563740D0A00000004002009
:1002B00000000020434F4E4E45435400636F6E6E66
:1002C00065637465640D0A00492067657420576989
:1002D0004669206461746125730D0A003A000000CC
:1002E00002080020020400204920676574207A6912
:1002F00067626565206461746125730D0A00000002
:10030000704700BFFEE700BFFEE700BFFEE700BF8B
:10031000FEE7704770477047704700000CB500203B
:10032000019000906C48006840F480306A49086091
:1003300000BF6948006800F4003000900198401C3C
:100340000190009818B90198B0F5A06FF1D16248FA
:10035000006800F4003010B10120009001E000209E
:1003600000900098012843D15C48006840F01000DC
:100370005A4908600846006820F0030008600846F3
:10038000006840F0020008605348406852494860E5
:100390000846406848600846406840F4806048600D
:1003A0000846406820F47C1048600846406840F4E5
:1003B000E81048600846006840F08070086000BFA0
:1003C0004548006800F000700028F9D042484068B5
:1003D00020F00300404948600846406840F00200B1
:1003E000486000BF3C48406800F00C000828F9D184
:1003F0000CBD10B5FFF792FF10BD10B53648006870
:1004000040F001003449086008464068344908401B
:100410003149486008460068324908402E49086062
:100420000846006820F4802008600846406820F4F0
:10043000FE0048604FF41F008860FFF7DAFF4FF0BE
:1004400000602949086010BD10B50021002000227D
:10045000214B5B6803F00C0121B1042906D0082967
:1004600028D107E0214B224C236027E01F4B204C72
:10047000236023E0184B5B6803F47010164B5B6835
:1004800003F48032022303EB904022B9194B43431B
:10049000174C23600DE0104B5B6803F4003323B16D
:1004A000144B4343124C236003E0104B4343104C66
:1004B000236003E00D4B0E4C236000BF00BF064BD2
:1004C0005B68C3F303130C4CE15C094B1B68CB4026
:1004D000074C236010BD00000010024000200240C5
:1004E0000000FFF8FFFFF6FE08ED00E000127A00C2
:1004F0000408002000093D000808002008B501217B
:10050000082000F0ADFF2020ADF8000003208DF89A
:10051000020010208DF8030069467A4800F0E4FCE0
:100520002021784800F08FFD642000F0A4F92021FC
:10053000744800F086FD642000F09DF908BDF0B518
:10054000ADF2044D05460C4616464FF47F7102A8E5
:1005500001F0F5F96C4800680190002000906946B0
:1005600001A800F0FBFA4FF4806101A801F0E7F95F
:10057000002000903DB1284601F0FEF987B23946CF
:10058000284600F0D2FA1CB901200DF2044DF0BD4E
:1005900000BF642000F06FF9694601A800F0DEFAA0
:1005A000204601F0E9F9BDF8001088420AD821463A
:1005B00001A801F0CFF928B101A954A001F022FA55
:1005C0000120E2E73000A6F10106E2D100BFDCE73E
:1005D00010B553A001F016FAFFF790FF4FF47A70B0
:1005E00000F049F90A2253A153A0FFF7A8FF4FF4E6
:1005F0007A7000F040F90A224EA151A0FFF79FFF48
:100600004FF47A7000F037F90A224AA14FA0FFF7A1
:1006100096FF4FF47A7000F02EF90A2245A14FA000
:10062000FFF78DFF4FF47A7000F025F90A2241A1FF
:1006300053A0FFF784FF4FF47A7000F01CF90A22F0
:100640003CA153A0FFF77BFF4FF47A7000F013F941
:100650000A2238A154A0FFF772FF4FF47A7000F01D
:100660000AF956A001F0CEF910BD704701460020EE
:100670007047704710B5002400BF052254A154A054
:10068000FFF75DFF0446002CF7D010BD10B5FFF753
:10069000F1FF0A224FA150A0FFF751FF10BD10B586
:1006A00004460A2223A12046FFF749FF10BD7047E8
:1006B00010B5ADF5816D002001900D214BA000F02B
:1006C00034FA13E0642000F0D6F801A902A800F083
:1006D00045FABDF804000A2808DD02A801F04CF92B
:1006E00084B2214602A800F073F900E0EAE700BFF7
:1006F000032137A000F019FAC82000F0BCF80DF56E
:10070000816D10BD000C0140541B000853656E64E0
:10071000436D642829206765742025730D0A000045
:10072000496E746F20455350383236365F496E69D2
:10073000740D0A004F4B000041540D0A00000000E8
:1007400041542B5253540D0A0000000041542B43D6
:10075000574D4F44453D330D0A00000041542B4393
:10076000575341503D2241504150222C22313233C7
:100770003435363738222C312C330D0A0000000076
:1007800041542B4349504D55583D310D0A0000004E
:1007900041542B4349505345525645523D312C3814
:1007A0003038300D0A00000041542B434950535457
:1007B0004F3D323838300D0A00000000457869742A
:1007C00020455350383236365F496E69740D0A0041
:1007D0002B2B2B003E00000041542B434950534526
:1007E0004E443D312C360D0A0000000030342D35CA
:1007F000373138363630392D3100000010B56FF002
:10080000040000F0F2FA2E4800682E49B0FBF1F027
:100810002D4908700846007800EB4001C1EBC0107C
:100820004FF6FF7101EAC0002849088010BD01465B
:10083000254A12784A434FF0E0235A6100229A6118
:100840001A46126942F001021A6100BF4FF0E0221D
:10085000106900F001021AB100F48032002AF5D0CC
:100860004FF0E022126922F001024FF0E0231A61FA
:1008700000229A6170470146144A12884A434FF099
:10088000E0235A6100229A611A46126942F001027D
:100890001A6100BF4FF0E022106900F001021AB1A6
:1008A00000F48032002AF5D04FF0E022126922F0E5
:1008B00001024FF0E0231A6100229A6170470000A4
:1008C0000408002000127A00180800201A080020EE
:1008D000002000BF01E0411C88B2B0F57A7FFADB4E
:1008E0007047014600BF704700BFFB4A128802F004
:1008F0004002002AF9D0C2B2F74B1B1D1A80704784
:1009000010B586B00446012144F2040000F0A8FDB1
:100910004FF40070ADF8140003208DF81600182075
:100920008DF8170005A9ED4800F0DEFA4FF480605D
:10093000ADF8140004208DF8170005A9E74800F071
:10094000D3FA25208DF8000003208DF801008DF8E2
:10095000020001208DF80300684600F0FCF90194C4
:100960000020ADF80800ADF80A00ADF80C00ADF8B5
:1009700010000C20ADF80E0001A9D74800F017FEBA
:10098000012240F22551D44800F0A9FE0121D248AD
:1009900000F099FE06B010BD10B5002440F22551BC
:1009A000CD4800F081FF012811D1CB4800F0FCFEBA
:1009B000C4B2CB480088B0F5806F08DCC948C8498C
:1009C00009884454C6480088401CC549088010BDA9
:1009D00070B505460E4600244021BF4800F04EFF8A
:1009E0000CE0295DBC4800F0DBFE00BF4021BA48A6
:1009F00000F044FF0128F9D1601C84B2B442F0DB5E
:100A000070BD30B505460B46B5480488002200206D
:100A10001880FFF75DFFB248008884420FD174B19F
:100A2000002204E0AF48805CA854501C82B2A2426D
:100A3000F8DBAB48008818800020A949088030BD49
:100A400010B586B00446A84800F06EFD01214804A8
:100A500000F013FD0121042000F002FD0420ADF898
:100A6000140002208DF8160018208DF8170005A933
:100A70009A4800F039FA0820ADF8140004208DF8E7
:100A8000170005A9954800F02FFA01940020ADF851
:100A90000800ADF80A00ADF80C00ADF810000C200D
:100AA000ADF80E0001A9904800F081FD01218E48AB
:100AB00000F009FE012240F225518B4800F00FFEA4
:100AC00026208DF8000003208DF8010002208DF80B
:100AD000020001208DF80300684600F03CF9202157
:100AE000814800F0D8FE40217F4800F0C7FE06B0E4
:100AF00010BD10B5002440F225517B4800F0D4FE13
:100B0000012811D1784800F04FFEC4B27748008820
:100B1000B0F5806F08DC76487449098844547348FE
:100B20000088401C7149088010BD70B505460E460E
:100B3000002440216C4800F0A1FE0CE0295D6A48C9
:100B400000F02EFE00BF4021674800F097FE01280C
:100B5000F9D1601C84B2B442F0DB70BD30B50546FB
:100B60000B4662480488002200201880FFF7B0FE80
:100B70005E48008884420FD174B1002204E05C48D2
:100B8000805CA854501C82B2A242F8DB574800880F
:100B9000188000205549088030BD10B586B0044645
:100BA000544800F0C1FC0121880400F066FC0121DA
:100BB000082000F055FC4FF48060ADF814000220CE
:100BC0008DF8160018208DF8170005A94A4800F086
:100BD0008BF94FF40060ADF8140004208DF8170075
:100BE00005A9454800F080F901940020ADF80800FF
:100BF000ADF80A00ADF80C00ADF810000C20ADF80F
:100C00000E0001A93B4800F0D2FC0121394800F058
:100C10005AFD012240F22551364800F060FD2720A0
:100C20008DF8000003208DF8010001208DF80200EE
:100C30008DF80300684600F08EF820212D4800F062
:100C40002AFE40212B4800F019FE06B010BD10B559
:100C5000002440F22551274800F026FE012810D13B
:100C6000244800F0A1FDC4B224480088C82808DC4C
:100C7000234822490988445420480088401C1F49C1
:100C8000088010BD70B505460E4600244021194865
:100C900000F0F4FD0CE0295D164800F081FD00BF76
:100CA0004021144800F0EAFD0128F9D1601C84B20B
:100CB000B442F0DB70BD30B505460B460F480488E2
:100CC000002200201880FFF703FE0C4800888442B1
:100CD00025D124B300221AE0003801400008014069
:100CE000220800203C080020004400402408002086
:100CF0003C0C002000480040000C01402608002069
:100D00003C1000200648805CA854501C82B2A242CD
:100D1000F8DB04480088188000200249088030BDB4
:100D20003C1000202608002006488047064800475F
:100D3000FEE7FEE7FEE7FEE7FEE7FEE7FEE7FEE78B
:100D4000FEE7FEE7FB0300083101000831490143DB
:100D5000314A1160704770B5002100230F22C4781A
:100D600004B32D4C246804F4E064C4F5E064210A63
:100D7000C1F10403CA40447804FA03F184781440B2
:100D800021430901254C0678A155047804F01F057C
:100D90000124AC4005786D11AD0005F1E025C5F8E2
:100DA000004109E0047804F01F050124AC401C4D0B
:100DB0000678761145F8264070BD1A4A0A4002436B
:100DC000154B1B1F1A60704739B1134A121D126868
:100DD0000243114B1B1D1A6006E00F4A121D1268D8
:100DE00082430D4B1B1D1A607047042808D14FF039
:100DF000E021096941F004014FF0E022116107E0B0
:100E00004FF0E021096921F004014FF0E022116167
:100E1000704700000000FA050CED00E000E400E07F
:100E200080E100E080FFFF1F10B50446CC488442FB
:100E300008D10121042000F02DFB0021042000F046
:100E400029FB46E0C748844208D10121082000F070
:100E500021FB0021082000F01DFB3AE0C24884423B
:100E600008D10121102000F015FB0021102000F016
:100E700011FB2EE0BD48844208D10121202000F062
:100E800009FB0021202000F005FB22E0B848844245
:100E900008D10121402000F0FDFA0021402000F09F
:100EA000F9FA16E0B348844208D10121802000F00D
:100EB000F1FA0021802000F0EDFA0AE0AE48844209
:100EC00007D10121801500F0E5FA0021A01500F0FE
:100ED000E1FA10BD10B50121084600F0DBFA00214F
:100EE000012000F0D7FA10BD2DE9F041024600259F
:100EF0000026002000230024002791F803C00CF0F6
:100F00000F0591F803C00CF0100CBCF1000F03D0DA
:100F100091F802C04CEA050591F800C0BCF1000F41
:100F200031D0146800202BE04FF0010C0CFA00F3D4
:100F3000B1F800C00CEA03069E4220D183004FF0B6
:100F40000F0C0CFA03F7BC4305FA03FC4CEA04044B
:100F500091F803C0BCF1280F06D14FF0010C0CFA38
:100F600000FCC2F814C00AE091F803C0BCF1480FBD
:100F700005D14FF0010C0CFA00FCC2F810C0401C67
:100F80000828D1D31460B1F800C0BCF1FF0F34DDE4
:100F9000546800202EE000F1080C4FF0010808FA18
:100FA0000CF3B1F800C00CEA03069E4221D1830085
:100FB0004FF00F0C0CFA03F7BC4305FA03FC4CEAA4
:100FC000040491F803C0BCF1280F05D100F1080C0E
:100FD00008FA0CF8C2F8148091F803C0BCF1480F6D
:100FE00007D100F1080C4FF0010808FA0CF8C2F81C
:100FF0001080401C0828CED35460BDE8F0814FF625
:10100000FF710180022181700421C1707047024686
:10101000002093680B400BB1012000E000207047D6
:101020000146886880B2704702460020D3680B40B2
:101030000BB1012000E0002070470146C86880B273
:10104000704701617047416170470AB1016100E07A
:1010500041617047C16070474FF480320A4382613A
:101060008161826182698269704702460020434B38
:1010700018684FF68073184040EA021008433F4B4F
:10108000186070473E49C8617047F0B50A460023B2
:1010900000240021002500F00046B6F1004F02D1E7
:1010A000364EF16901E0354E7168C0F3034583B2F5
:1010B00000F44016B6F5401F08D121F070612F4EA4
:1010C000766826F070662D4F7E6012E000F4801680
:1010D000B6F5801F06D1032606FA05F4A14341F0B8
:1010E000706106E0460D360103FA06F6B14341F0A1
:1010F000706122B1460D360103FA06F6314300F065
:101100000046B6F1004F02D11C4EF16101E01B4ECA
:101110007160F0BD30B500228B071C0F0F2303FA5E
:1011200004F2164B08338C1053F824309343134CBD
:1011300008348D1044F8253023468C1053F82430A1
:101140008C07240F00FA04F423430C4C08348D1050
:1011500044F8253030BD0A49DC3108607047000092
:1011600000080140000C0140001001400014014043
:1011700000180140001C0140002001400000014017
:1011800000002042DF48006840F00100DD490860AF
:1011900008464068DC490840DA494860084600686B
:1011A000DA490840D74908600846006820F48020E2
:1011B00008600846406820F4FE0048604FF41F00B5
:1011C00088607047CF49096821F48031CD4A1160A9
:1011D0001146096821F480211160B0F5803F03D0E9
:1011E000B0F5802F0ED106E0C649096841F4803180
:1011F000C44A116007E0C349096841F4A021C14A0B
:10120000116000E000BF00BF704710B5014600222A
:10121000002300204A11012A02D1BA4C236806E0BB
:10122000022A02D1B74C236A01E0B64C636A01F08E
:101230001F02012494401C400CB1012000E000205A
:1012400010BD38B5002000900024002500BF3120DB
:10125000FFF7DBFF05460098401C00900098B0F5B2
:10126000A06F01D0002DF2D03120FFF7CEFF08B1E2
:10127000012400E00024204638BD01460020A14A98
:10128000106820F0F80040EAC10010607047A049E3
:1012900008607047024600209A4B586820F47C1082
:1012A00042EA01031843974B586070479849086613
:1012B000704701460020934A506820F0030008431D
:1012C000506070478F48406800F00C00704701463E
:1012D00000208C4A506820F0F000084350607047AE
:1012E00001460020874A506820F4E06008435060BF
:1012F000704701460020834A506820F4605040EA5D
:10130000C1005060704729B17E4A527A02437D4B3A
:101310005A7204E07B4A527A82437A4B5A7270477F
:101320007B49D8310860704701460020754A5068F3
:1013300020F440400843506070470021714A203239
:101340001170704A82F82010012802D004280AD1B6
:1013500004E001216B4A2032117005E00521694A41
:101360002032117000E000BF00BF7047694908607B
:1013700070476449096A0143624A116270476549CE
:1013800044390860704730B5002100220024002352
:101390005C4D6D6805F00C0121B1042905D00829C8
:1013A00023D105E05C4D056022E05B4D05601FE048
:1013B000544D6D6805F47012524D6D6805F480341B
:1013C000022505EB92421CB9544D554305600BE0D4
:1013D0004C4D6D6805F400351DB1504D5543056009
:1013E00002E04D4D5543056002E04B4D056000BFE6
:1013F00000BF444D6D6805F0F0010909484D6B5C74
:101400000568DD4045603F4D6D6805F4E061090AFF
:10141000434D6B5C4568DD4085603A4D6D6805F471
:101420006051C90A3E4D6B5C4568DD40C560354D75
:101430006D6805F44041890B3A4D6B5CC568B5FB9E
:10144000F3F5056130BD29B12E4A526902432D4B97
:101450005A6104E02B4A526982432A4B5A61704711
:1014600029B1284A92690243264B9A6104E0254A31
:1014700092698243234B9A61704729B1214AD2690C
:101480000243204BDA6104E01E4AD26982431D4BBD
:10149000DA61704729B11B4AD2680243194BDA60FE
:1014A00004E0184AD2688243164BDA60704729B1CB
:1014B000144A12690243134B1A6104E0114A12697B
:1014C0008243104B1A6170471249403908607047D7
:1014D0000F49C86470470B49C87170470948406A92
:1014E00040F0807007494862704701460020054A75
:1014F00092680A400AB1012000E0002070470149CB
:1015000088727047001002400000FFF8FFFFF6FEEF
:10151000000042428004424200127A0000093D006D
:10152000280800203808002010B50446FB488442F3
:1015300009D101218803FFF7ADFF00214FF480405E
:10154000FFF7A8FF32E0F648844209D101214804A0
:10155000FFF7ADFF00214FF40030FFF7A8FF25E0B3
:10156000F048844209D101218804FFF7A0FF00213F
:101570004FF48020FFF79BFF18E0EB48844209D12D
:101580000121C804FFF793FF00214FF40020FFF76B
:101590008EFF0BE0E548844208D101210805FFF7E2
:1015A00086FF00214FF48010FFF781FF10BD2DE969
:1015B000F04786B005460E460024A24600BFA1466D
:1015C0000027B08900B100BF2F462C8A4CF6FF706F
:1015D0000440F08804432C82AC894EF6F31004409A
:1015E000B08831890843718908430443AC81AC8ACF
:1015F0004FF6FF400440B0890443AC8201A8FFF7D6
:10160000C2FEC648874202D1DDF810A001E0DDF835
:101610000CA0A88900F4004040B10AEBCA0000EB1E
:101620000A1031684900B0FBF1F807E00AEBCA0084
:1016300000EB0A1031688900B0FBF1F86420B8FBB8
:10164000F0F004012009642101FB1089A88900F44D
:10165000004040B1322000EBC900B0FBF1F000F0D7
:101660000700044308E0322000EB09106421B0FBBE
:10167000F1F000F00F0004432C8106B0BDE8F087C4
:101680004FF41651016000218180C18001810C213D
:10169000418100218181704710B502460020108AE7
:1016A0004FF2FF0318400B884C8823438C88234358
:1016B000CC8823431843108210BD00210180418053
:1016C0008180C180704721B1828942F400528281B9
:1016D00004E082894DF6FF731A4082817047F0B5AD
:1016E0000346002400260025002040F66A17B94270
:1016F00000D100BF1846C1F3421401F01F060127B4
:1017000007FA06F5012C01D10C3004E0022C01D1BE
:10171000103000E014301AB107682F43076002E070
:101720000768AF430760F0BD1AB1838A0B43838219
:1017300002E0838A8B4383827047028A4FF6F073FC
:101740001A400282028A0A430282704782894FF25B
:10175000FF731A40828182890A438281704721B1D6
:10176000828942F00202828104E082894FF6FD7391
:101770001A4082817047028A4FF6DF731A40028254
:10178000028A0A430282704721B1028A42F48042EF
:10179000028204E0028A4BF6FF731A40028270470D
:1017A000C1F308028280704701468888C0F30800B0
:1017B0007047818941F0010181817047028BD2B26B
:1017C0000283028B42EA012202837047028B02F4F9
:1017D0007F420283028B0A430283704721B1828ACF
:1017E00042F02002828204E0828A4FF6DF731A40C0
:1017F0008282704721B1828A42F01002828204E024
:10180000828A4FF6EF731A408282704721B1828A32
:1018100042F00802828204E0828A4FF6F7731A408F
:101820008282704721B1828942F40042828103E0C2
:101830008289C2F30E028281704721B1828A42F40A
:101840000062828204E0828A4FF2FF731A40828231
:101850007047828A4FF6FB731A408282828A0A435B
:101860008282704721B1828A42F00202828204E0C1
:10187000828A4FF6FD731A4082827047024600202A
:10188000B1F5007F00D100BF13880B400BB10120E0
:1018900000E00020704701F40072B2F5007F00D133
:1018A00000BFCA430280704770B50246002400237F
:1018B0000025002040F66A16B14200D100BFC1F3F6
:1018C000421501F01F03012606FA03F3012D02D190
:1018D0009689334006E0022D02D1168A334001E09A
:1018E000968A33400C12012606FA04F41688344016
:1018F00013B10CB1012000E0002070BD10B5002232
:10190000002340F66A14A14200D100BF0A1201244C
:101910009440A3B2DC43048010BD000000380140B5
:101920000044004000480040004C0040005000408F
:10193000D2B201E000F8012B491EFBD27047002211
:10194000F6E710B513460A4604461946FFF7F0FFBE
:10195000204610BD30B505462A460B4612F8010B4D
:1019600013F8014B08B1A042F8D01CB1002802D0F6
:101970006D1CF1E7284630BD421C10F8011B002900
:10198000FBD1801A70470000064C074D06E0E06866
:1019900040F0010394E8070098471034AC42F6D3B6
:1019A000FEF7CAFB581B0008781B000870B58C189E
:1019B00010F8015B15F0070301D110F8013B2A1163
:1019C00006D110F8012B03E010F8016B01F8016B50
:1019D0005B1EF9D12B0705D40023521E0DD401F84C
:1019E000013BFAE710F8013BCB1A921C03E013F815
:1019F000015B01F8015B521EF9D5A142D8D300204A
:101A000070BD00000FB4054B10B503A9044A02983D
:101A100000F017F810BC5DF814FB0000E90800089E
:101A20001C08002002E008C8121F08C1002AFAD1D1
:101A300070477047002001E001C1121F002AFBD14E
:101A400070472DE9F84F994692468846054600278B
:101A500006E025280AD051464A4690476D1C7F1C57
:101A600028780028F5D13846BDE8F88F002315F80E
:101A7000011F18462E2915D115F8011F04232A2904
:101A80000DD06FF02F022978A1F13004092C09D86C
:101A900000EB800002EB400008446D1CF3E758F8AF
:101AA000040B6D1C2A78002ADDD0632A07D0732A24
:101AB0000FD0104651464A4690477F1C2AE018F83E
:101AC000042B8DF8002000218DF801106E460121B5
:101AD00003E058F8046B4FF0FF315A074FF0000451
:101AE00001D409E0641C84420BDA8C42FADB325DDB
:101AF000002AF7D105E0641C8C42FCDB305D002835
:101B0000F9D1274404E016F8010B51464A469047A4
:101B1000641EF8D26D1CA3E72C3B7265645F73747E
:101B20006174752C362E37363B677265656E5F7350
:101B3000746174752C303B79656C6C6F775F73746E
:101B40006174752C303B626C75655F73746174757C
:101B50002C303B0030000000781B00080000002003
:101B60003C080000AC190008A81B00083C08002035
:101B7000CC100000341A000802FF3001FF01FF0101
:101B8000FF5102FF3001FF01FF01FF6184A24A04FF
:101B90000009140102030406070809291C6920052D
:081BA000000204060800000029
:0400000508000131BD
:00000001FF
